:020000040800F2
:1080000000000120F19E0008359800083B98000808
:1080100041980008479800084D98000800000000AB
:10802000000000000000000000000000D1F1000886
:10803000539800080000000021F40008A9CE0008B1
:10804000419F0008419F0008419F0008419F000890
:10805000419F0008419F0008419F0008419F000880
:10806000419F0008419F0008419F0008419F000870
:10807000419F0008419F0008419F0008419F000860
:10808000419F0008419F0008419F00080000000038
:10809000000000000000000000000000419F0008F8
:1080A000419F0008419F0008419F0008419F000830
:1080B00061980008419F0008419F0008419F000807
:1080C000419F0008419F0008419F0008419F000810
:1080D000419F0008419F0008419F000800000000E8
:1080E000419F0008419F0008419F000800000000D8
:1080F000000000000000000000000000419F000898
:1081000000000000419F0008419F0008419F0008B7
:10811000000000000000000000000000000000005F
:10812000419F0008419F0008419F0008419F0008AF
:10813000419F000800000000000000000000000057
:10814000000000000000000000000000419F000847
:10815000419F0008419F0008419F0008419F00087F
:10816000419F0008419F000800000000000000003F
:1081700000000000000000000000000000000000FF
:1081800000000000419F0008000000000000000007
:04819000419F000803
:1081A00010B5054C237833B9044B13B10448AFF331
:1081B00000800123237010BD10000020000000008B
:1081C000F0F9000808B5034B1BB103490348AFF3AE
:1081D000008008BD0000000014000020F0F9000835
:1081E00081F0004102E000BF83F0004330B54FEA68
:1081F00041044FEA430594EA050F08BF90EA020FD5
:108200001FBF54EA000C55EA020C7FEA645C7FEA67
:10821000655C00F0E2804FEA5454D4EB5555B8BF8A
:108220006D420CDD2C4480EA020281EA030382EAFB
:10823000000083EA010180EA020281EA0303362D8D
:1082400088BF30BD11F0004F4FEA01314FF4801C60
:108250004CEA113102D0404261EB410113F0004F72
:108260004FEA03334CEA133302D0524263EB430329
:1082700094EA050F00F0A780A4F10104D5F1200EC7
:108280000DDB02FA0EFC22FA05F2801841F1000122
:1082900003FA0EF2801843FA05F359410EE0A5F1F6
:1082A00020050EF1200E012A03FA0EFC28BF4CF027
:1082B000020C43FA05F3C01851EBE37101F00045DD
:1082C00007D54FF0000EDCF1000C7EEB00006EEBEA
:1082D0000101B1F5801F1BD3B1F5001F0CD3490874
:1082E0005FEA30004FEA3C0C04F101044FEA4452CB
:1082F00012F5800F80F09A80BCF1004F08BF5FEA52
:10830000500C50F1000041EB045141EA050130BD31
:108310005FEA4C0C404141EB0101013C28BFB1F543
:10832000801FE9D291F0000F04BF01460020B1FA8E
:1083300081F308BF2033A3F10B03B3F120020CDA61
:108340000C3208DD02F1140CC2F10C0201FA0CF03F
:1083500021FA02F10CE002F11402D8BFC2F1200CA4
:1083600001FA02F120FA0CFCDCBF41EA0C0190405A
:10837000E41AA2BF01EB0451294330BD6FEA0404A3
:108380001F3C1CDA0C340EDC04F11404C4F120028E
:1083900020FA04F001FA02F340EA030021FA04F3A0
:1083A00045EA030130BDC4F10C04C4F1200220FAF7
:1083B00002F001FA04F340EA0300294630BD21FA35
:1083C00004F0294630BD94F0000F83F4801306BFFB
:1083D00081F480110134013D4EE77FEA645C18BFEF
:1083E0007FEA655C29D094EA050F08BF90EA020F86
:1083F00005D054EA000C04BF1946104630BD91EA7E
:10840000030F1EBF0021002030BD5FEA545C05D180
:108410004000494128BF41F0004130BD14F58004BF
:108420003CBF01F5801130BD01F0004545F0FE4133
:1084300041F470014FF0000030BD7FEA645C1ABF68
:10844000194610467FEA655C1CBF0B46024650EA9F
:10845000013406BF52EA033591EA030F41F40021CB
:1084600030BD00BF90F0000F04BF0021704730B551
:108470004FF4806404F132044FF000054FF0000126
:1084800050E700BF90F0000F04BF0021704730B5E7
:108490004FF4806404F1320410F0004548BF4042BC
:1084A0004FF000013EE700BF42004FEAE2014FEA11
:1084B00031014FEA02701FBF12F07F4393F07F4FEC
:1084C00081F06051704732F07F4208BF704793F0EF
:1084D0007F4F04BF41F40021704730B54FF4607402
:1084E00001F0004521F000411CE700BF50EA010205
:1084F00008BF704730B54FF000050AE050EA0102AE
:1085000008BF704730B511F0004502D5404261EB1D
:1085100041014FF4806404F132045FEA915C3FF45E
:10852000D8AE4FF003025FEADC0C18BF03325FEAFB
:10853000DC0C18BF033202EBDC02C2F1200300FAAC
:1085400003FC20FA02F001FA03FE40EA0E0021FAD1
:1085500002F11444BDE600BF70B54FF0FF0C4CF4BF
:10856000E06C1CEA11541DBF1CEA135594EA0C0F71
:1085700095EA0C0F00F0DEF82C4481EA030621EAAC
:108580004C5123EA4C5350EA013518BF52EA0335E7
:1085900041F4801143F4801338D0A0FB02CE4FF099
:1085A0000005E1FB02E506F00042E0FB03E54FF0C9
:1085B0000006E1FB03569CF0000F18BF4EF0010EC1
:1085C000A4F1FF04B6F5007F64F5407404D25FEABD
:1085D0004E0E6D4146EB060642EAC62141EA555170
:1085E0004FEAC52040EA5E504FEACE2EB4F1FD0CB2
:1085F00088BFBCF5E06F1ED8BEF1004F08BF5FEA30
:10860000500E50F1000041EB045170BD06F00046E1
:1086100046EA010140EA020081EA0301B4EB5C048E
:10862000C2BFD4EB0C0541EA045170BD41F4801186
:108630004FF0000E013C00F3AB8014F1360FDEBFAB
:10864000002001F0004170BDC4F10004203C35DA87
:108650000C341BDC04F11404C4F1200500FA05F30A
:1086600020FA04F001FA05F240EA020001F00042AB
:1086700021F0004110EBD37021FA04F642EB060121
:108680005EEA430E08BF20EAD37070BDC4F10C044B
:10869000C4F1200500FA04F320FA05F001FA04F20F
:1086A00040EA020001F0004110EBD37041F10001FB
:1086B0005EEA430E08BF20EAD37070BDC4F1200506
:1086C00000FA05F24EEA020E20FA04F301FA05F26E
:1086D00043EA020321FA04F001F0004121FA04F216
:1086E00020EA020000EBD3705EEA430E08BF20EAE6
:1086F000D37070BD94F0000F0FD101F00046400020
:1087000041EB010111F4801F08BF013CF7D041EAA1
:10871000060195F0000F18BF704703F000465200A5
:1087200043EB030313F4801F08BF013DF7D043EA76
:108730000603704794EA0C0F0CEA135518BF95EA2C
:108740000C0F0CD050EA410618BF52EA4306D1D1B3
:1087500081EA030101F000414FF0000070BD50EAD2
:10876000410606BF1046194652EA430619D094EA5C
:108770000C0F02D150EA013613D195EA0C0F05D146
:1087800052EA03361CBF104619460AD181EA03019A
:1087900001F0004141F0FE4141F470014FF0000052
:1087A00070BD41F0FE4141F4780170BD70B54FF0ED
:1087B000FF0C4CF4E06C1CEA11541DBF1CEA13556D
:1087C00094EA0C0F95EA0C0F00F0A7F8A4EB05044F
:1087D00081EA030E52EA03354FEA013100F0888046
:1087E0004FEA03334FF0805545EA131343EA12630F
:1087F0004FEA022245EA111545EA10654FEA0026C4
:108800000EF000419D4208BF964244F1FD0404F57C
:10881000407402D25B084FEA3202B61A65EB0305D8
:108820005B084FEA32024FF480104FF4002CB6EB95
:10883000020E75EB030E22BFB61A754640EA0C0015
:108840005B084FEA3202B6EB020E75EB030E22BF55
:10885000B61A754640EA5C005B084FEA3202B6EB96
:10886000020E75EB030E22BFB61A754640EA9C0055
:108870005B084FEA3202B6EB020E75EB030E22BF25
:10888000B61A754640EADC0055EA060E18D04FEAE3
:10889000051545EA16754FEA06164FEAC30343EA83
:1088A00052734FEAC2025FEA1C1CC0D111F4801F50
:1088B0000BD141EA00014FF000004FF0004CB6E749
:1088C00011F4801F04BF01430020B4F1FD0C88BFE8
:1088D000BCF5E06F3FF6AFAEB5EB030C04BFB6EBF3
:1088E000020C5FEA500C50F1000041EB045170BDE6
:1088F0000EF0004E4EEA113114EB5C04C2BFD4EB13
:108900000C0541EA045170BD41F480114FF0000E96
:10891000013C90E645EA060E8DE60CEA135594EA12
:108920000C0F08BF95EA0C0F3FF43BAF94EA0C0F15
:108930000AD150EA01347FF434AF95EA0C0F7FF48A
:1089400025AF104619462CE795EA0C0F06D152EADE
:1089500003353FF4FDAE1046194622E750EA4106C2
:1089600018BF52EA43067FF4C5AE50EA41047FF4D3
:108970000DAF52EA43057FF4EBAE12E74A0011D285
:1089800012F5001211D20DD56FF47873B3EB625269
:108990000ED44FEAC12343F0004343EA505323FA75
:1089A00002F070474FF00000704750EA013002D1EA
:1089B0004FF0FF3070474FF00000704753B94AB98D
:1089C000002908BF00281CBF4FF0FF314FF0FF30D7
:1089D00000F070B9ADF1080C6DE904CE00F006F8B6
:1089E000DDF804E0DDE9022304B070472DE9F0472B
:1089F000089E0D4604460F46002B4AD18A429446F3
:108A000065D9B2FA82F343B102FA03FCC3F1200242
:108A10009F4020FA02F217439C404FEA1C4E1FFA77
:108A20008CF5B7FBFEF1220C0EFB117742EA0742F0
:108A300001FB05F090420AD91CEB020201F1FF375D
:108A400080F01C81904240F2198102396244121A6E
:108A5000A4B2B2FBFEF00EFB102244EA024400FB7B
:108A600005F5A5420AD91CEB040400F1FF3280F0A1
:108A70000781A54240F204816444023840EA014083
:108A8000641B00211EB1DC400023C6E90043BDE8A1
:108A9000F0878B4208D9002E00F0ED800021C6E956
:108AA00000050846BDE8F087B3FA83F1002949D1F3
:108AB000AB4202D3824200F2F880841A65EB0302D3
:108AC00001201746002EE2D0C6E90047DFE702B9D1
:108AD000FFDEB2FA82F3002B40F090808A1A4FEA50
:108AE0001C471FFA8CFE0121B2FBF7F507FB15208E
:108AF000220C42EA00420EFB05F0904208D91CEB22
:108B0000020205F1FF3802D2904200F2CB804546C6
:108B1000121AA4B2B2FBF7F007FB102244EA024497
:108B20000EFB00FEA64508D91CEB040400F1FF3241
:108B300002D2A64500F2BB801046A4EB0E0440EA28
:108B400005409FE7C1F120078B4022FA07FC4CEA61
:108B5000030C05FA01F420FA07F3FD404FEA1C4923
:108B60002343B5FBF9F81FFA8CFE09FB18551C0CC2
:108B700044EA054408FB0EF5A54202FA01F200FAA8
:108B800001F00BD91CEB040408F1FF3A80F0888057
:108B9000A54240F28580A8F102086444641B9DB29E
:108BA000B4FBF9F309FB134445EA044403FB0EFE4E
:108BB000A64508D91CEB040403F1FF356CD2A64589
:108BC0006AD9023B644443EA0843A3FB0295A4EB41
:108BD0000E04AC42C846AE4656D353D056B1B0EBA5
:108BE000080264EB0E0404FA07F7CA40CC401743AE
:108BF000C6E9007418460021BDE8F087C3F12001E2
:108C000002FA03FC20FA01F225FA01F19D402A4301
:108C10004FEA1C471FFA8CFEB1FBF7F007FB10155B
:108C2000110C41EA054100FB0EF58D4204FA03F4F4
:108C300008D91CEB010100F1FF382FD28D422DD94C
:108C400002386144491B92B2B1FBF7F507FB1511DD
:108C500042EA014205FB0EF1914208D91CEB0202E7
:108C600005F1FF3816D2914214D9023D6244521ADE
:108C700045EA004138E73146304608E73946E6E63E
:108C80001046FBE64845A9D2B9EB020865EB0C0E8D
:108C9000013BA3E74546EAE72B4694E74046D1E788
:108CA000D0467BE7023D624432E708460AE7644467
:108CB000023842E7704700BF80B582B000AF0023A2
:108CC0007B600023FB70144801F0C2F96421124854
:108CD00001F072FA104801F0FAFA78607868FFF74C
:108CE000C1FB4FF000020D4BFFF760FD02460B4643
:108CF000104619464FF00002094BFFF72DFC0246C3
:108D00000B4610461946FFF739FE0346FB70FB7809
:108D100018460837BD4680BD2C0000200000B0403A
:108D20000000594080B500AF0021044802F044FD26
:108D30000421024802F040FD00BF80BD2C0100204C
:108D400080B483B000AF0346FB71FB79C3F16302CB
:108D5000074B1B685A63FB79C3F16302044B1B6822
:108D60009A6300BF0C37BD465DF8047B704700BFB7
:108D70002C01002080B500AF00224FF480510B4839
:108D800001F06AFF00224FF40051084801F064FF2F
:108D900000224FF48041054801F05EFF00224FF4AD
:108DA0000041024801F058FF00BF80BD00040240AE
:108DB00080B500AF01224FF480510B4801F04CFF09
:108DC00000224FF40051084801F046FF01224FF401
:108DD0008041054801F040FF00224FF40041024865
:108DE00001F03AFF00BF80BD0004024080B500AF33
:108DF00000224FF480510B4801F02EFF01224FF466
:108E00000051084801F028FF01224FF48041054835
:108E100001F022FF00224FF40041024801F01CFF44
:108E200000BF80BD0004024080B500AF01224FF4B6
:108E300080510B4801F010FF00224FF40051084808
:108E400001F00AFF00224FF48041054801F004FFC1
:108E500001224FF40041024801F0FEFE00BF80BD38
:108E60000004024080B586B000AF01233B750023AB
:108E7000FB8200233B8107F108033B615523FB7113
:108E8000FB1DFB6064230222F968174803F090FB86
:108E900003463B753B7D002B1FD100237B750AE009
:108EA0007B7D3A69D118642301220F4803F00BFC43
:108EB0007B7D01337B757B7D012BF1D97B7A1AB2E7
:108EC0003B7A1B021BB213431BB2FB82FB8A074A8D
:108ED000A2FB0323DB08FB8201E001233B75FB8A35
:108EE00018461837BD4680BD04020020CDCCCCCC3E
:108EF00080B584B000AF3B4600221A605A609A6089
:108F0000DA60214B214A1A601F4B00225A601E4B27
:108F100000229A601C4B00221A611B4B00221A7619
:108F2000194B002283F82020174B0022DA62164BDF
:108F3000174A9A62144B0022DA60134B0122DA615D
:108F4000114B002283F830200F4B01225A610E484A
:108F500001F03AF80346002B01D000F0B8FB0023E3
:108F60003B6001237B600023BB603B4619460648FB
:108F700001F0BAF90346002B01D000F0A8FB00BFB6
:108F80001037BD4680BD00BF2C00002000200140EE
:108F90000100000F80B58AB000AF786007F11403BC
:108FA00000221A605A609A60DA601A617B681B6856
:108FB000174A934227D100233B61164B5B6C154A3D
:108FC00043F480735364134B5B6C03F480733B6115
:108FD0003B690023FB600F4B1B6B0E4A43F0010300
:108FE00013630C4B1B6B03F00103FB60FB68012355
:108FF0007B610323BB610023FB6107F11403194666
:10900000054801F08DFC00BF2837BD4680BD00BF7C
:1090100000200140003802400000024080B500AF4F
:10902000184A0021184803F0A3FF0346174A1360AB
:10903000174A0021174803F09BFF0346164A1360A6
:10904000164A0021164803F093FF0346154A1360A1
:10905000154A0021154803F08BFF0346144A13609C
:10906000144A0021144803F083FF0346134A136097
:10907000134A0021134803F07BFF0346124A136092
:1090800000BF80BD50FA0008CD900008800000208D
:1090900074FA00084D9100088400002098FA000836
:1090A0000192000888000020BCFA0008899200089C
:1090B0008C000020E0FA0008F192000890000020E7
:1090C00004FB00083D9400089400002080B582B0A5
:1090D00000AF7860184B1B78002B29D1174B1B78F9
:1090E000002B25D1164B1B78002B21D0154B0022CD
:1090F0001A70FFF75DFE144B1B88312B0CD8124BF6
:109100001B880A2B08D9104B1B88013BDBB25B0084
:10911000DAB20C4B1A7006E00B4B1B88312B02D9CC
:10912000084B62221A70074B1B781846FFF708FE9F
:10913000012003F0AFFFCDE7790000207A00002086
:1091400077000020980000207400002080B582B0D5
:1091500000AF7860FFF786FE03461A46224B1A805E
:109160000221224801F060FD03461A46204B1A7086
:1091700001211E4801F058FD03461A461D4B1A7086
:10918000194B1B880A2B07D9194B1B78002B24D1AC
:10919000184B1B78002B20D1FFF7ECFD164B01225A
:1091A0001A700020FFF7CCFD012204210F4801F0C6
:1091B00053FD01220221114801F04EFD40F6B83066
:1091C00004F0FAFE002202210C4801F045FD0022C5
:1091D0000421064801F040FD02E0074B00221A700E
:1091E000012003F057FFB5E774000020000402409F
:1091F0007B0000207C00002079000020000002405D
:1092000080B582B000AF78601A4B1B78002B2CD150
:10921000194B1B78012B0DD1184B1B78012B09D151
:10922000174B1B78002B05D0FFF7C2FD154B002212
:109230001A701AE0104B1B78012B09D10F4B1B78C9
:10924000002B05D10F4B01221A70FFF7EDFD0CE04A
:10925000094B1B78002B08D1084B1B78012B04D13C
:10926000084B01221A70FFF7C1FD012003F012FF25
:10927000CAE700BF790000207B0000207C000020AE
:10928000770000207A00002080B584B000AF7860BD
:109290000023FB73FFF710FD0346FB73FB7B5C2B86
:1092A00004D9124B1B6862225A631BE0FB7B5C2BC8
:1092B00002D9FB7B4F2B04D90C4B1B68FA7B5A63FA
:1092C00010E0FB7B4F2B02D9FB7B0A2B06D9FB7BE3
:1092D0005B08DAB2054B1B685A6303E0034B1B685B
:1092E00000225A63012003F0D5FED3E77401002069
:1092F00080B584B000AF78600023FB73484B1B78C7
:10930000002B40F08980474B1B78002B40F0848075
:10931000454B1B88632B03D8434B1B88FB7301E031
:109320005A23FB730123BB73322301223F49404878
:1093300003F0C9F90346BB73BB7B002B6CD13D4BDB
:109340001B78002B5ED1394B1B78423B112B56D832
:1093500001A252F823F000BFF7930008FF93000822
:10936000FF930008FF930008AF930008FF930008E5
:10937000FF930008FF930008A1930008FF930008E3
:10938000C3930008FF930008FF930008FF930008B1
:10939000FF930008FF930008D7930008EB930008A1
:1093A000244B01221A70244B00221A7034E0FFF77C
:1093B000FFFCFB7B1846FFF7C3FC1F4B00221A7013
:1093C0002AE0FFF731FDFB7B1846FFF7B9FC1A4B8B
:1093D00000221A7020E0FFF709FDFB7B1846FFF71B
:1093E000AFFC154B00221A7016E0FFF7C3FC124BBE
:1093F00000221A7010E0104B01221A700CE00123B9
:10940000BB7309E0094B1B78482B05D1094B00229F
:109410001A70094B00221A70012003F03BFE6DE721
:10942000790000207A0000207400002076000020DF
:109430004C020020770000207800002080B584B026
:1094400000AF78600023FB730723BB7307F10F01A4
:10945000642301220F4803F036F9FB7B372B02D03F
:10946000FB7B372B12D101224FF480710A4801F0A7
:10947000F3FB0A4B1B78012B08D107F10E01642383
:109480000122044803F094F801F045FA012003F0AA
:1094900001FEDBE7BC010020000402407800002050
:1094A00080B588B000AF07F10C0300221A605A6043
:1094B0009A60DA601A610023BB60304B1B6B2F4A45
:1094C00043F0010313632D4B1B6B03F00103BB60DF
:1094D000BB6800237B60294B1B6B284A43F00203C7
:1094E0001363264B1B6B03F002037B607B68002237
:1094F0000221234801F0B0FB00224FF20411214861
:1095000001F0AAFB0223FB6001233B6100237B6186
:109510000123BB6107F10C031946194801F000FA59
:109520000323FB6000233B6100237B6107F10C03F5
:109530001946144801F0F4F94FF20403FB600123CB
:109540003B6100237B610123BB6107F10C031946DA
:109550000C4801F0E5F94FF48073FB6001233B6197
:1095600002237B610123BB6107F10C031946054807
:1095700001F0D6F900BF2037BD4680BD003802405B
:10958000000002400004024080B500AF00F0DAFCA9
:1095900000F024F8FFF784FF00F0D2F900F052FA4F
:1095A00000F0A0FB00F07CF9FFF7A2FC00F070FBDC
:1095B00000F0C2FBFFF7B6FB0021064802F0FCF802
:1095C0000548FFF7E7FC03F089FCFFF727FD03F0F0
:1095D000A9FCFEE7740100202C00002080B594B0A7
:1095E00000AF07F1200330220021184606F0C6F92B
:1095F00007F10C0300221A605A609A60DA601A615F
:109600000023BB60284B1B6C274A43F08053136434
:10961000254B1B6C03F08053BB60BB6800237B6051
:10962000224B1B6823F44043204A43F40043136059
:109630001E4B1B6803F440437B607B6802233B6244
:109640000123FB6210233B630223BB630023FB6304
:1096500008233B6440237B640223BB640423FB6434
:1096600007F12003184601F011FB0346002B01D03F
:1096700000F02DF80F23FB6002233B6180237B6108
:109680004FF48053BB610023FB6107F10C03012100
:10969000184601F073FD0346002B01D000F017F8C7
:1096A00000BF5037BD4680BD00380240007000400A
:1096B00080B582B000AF78607B681B68B3F1804FE3
:1096C00001D100F061FC00BF0837BD4680BD80B409
:1096D00000AF72B600BFFEE780B582B000AF0023D6
:1096E0007B60154B5B6C144A43F480435364124B0C
:1096F0005B6C03F480437B607B6800233B600E4B14
:109700001B6C0D4A43F0805313640B4B1B6C03F02E
:1097100080533B603B68002205216FF0040001F09C
:10972000D0F800220F216FF0010001F0CAF800BF4D
:109730000837BD4680BD00BF0038024080B58EB0FE
:1097400000AF78600023FB620023BB620023FB6054
:10975000344B1B6C334A43F001031364314B1B6CD5
:1097600003F00103FB60FB6807F1100207F114032B
:109770001146184601F0E2FE3B6AFB62FB6A002BD1
:1097800003D101F0B3FE786304E001F0AFFE0346BD
:109790005B007B637B6B244AA2FB03239B0C013B96
:1097A000BB62224B4FF080421A60204B40F2E732FE
:1097B000DA601E4ABB6A53601C4B00221A611B4BC5
:1097C00000229A60194B00229A61184801F0E8FEC5
:1097D000034687F8333097F83330002B1BD11348FA
:1097E00001F02EFF034687F8333097F83330002B13
:1097F00011D11C2001F081F87B680F2B08D80022C2
:1098000079681C2001F05DF8094A7B68136002E06A
:10981000012387F8333097F8333018463837BD4680
:1098200080BD00BF0038024083DE1B439C00002047
:109830000400002080B400AFFEE780B400AFFEE774
:1098400080B400AFFEE780B400AFFEE780B400AFA5
:10985000FEE780B400AF00BFBD465DF8047B7047F3
:1098600080B500AF024802F057F800BF80BD00BFCE
:109870009C00002080B400AF074BD3F88830064A24
:1098800043F47003C2F88830034B044A9A6000BF67
:10989000BD465DF8047B704700ED00E000800008E5
:1098A00080B586B000AF07F1080300221A605A6045
:1098B0009A60DA603B4600221A605A601E4B1F4ACB
:1098C0001A601D4B41F6FF025A601B4B00229A6042
:1098D000194B6322DA60184B00221A61164B0022E2
:1098E0005A61154B00229A61134801F059FE034654
:1098F000002B01D0FFF7EBFE4FF48053BB6007F164
:10990000080319460C4802F0B9F90346002B01D0B0
:10991000FFF7DDFE00233B6000237B603B461946DA
:10992000054802F073FD0346002B01D0FFF7CFFE80
:1099300000BF1837BD4680BDE40000200000014094
:1099400080B58EB000AF07F1280300221A605A607C
:109950009A60DA6007F1200300221A605A603B1D0A
:1099600000221A605A609A60DA601A615A619A613C
:10997000324B334A1A60314B41F6FF025A602F4B8B
:1099800000229A602D4B6322DA602C4B00221A6170
:109990002A4B00229A61294801F002FE0346002B5F
:1099A00001D0FFF794FE4FF48053BB6207F1280308
:1099B0001946224802F062F90346002B01D0FFF756
:1099C00086FE1E4801F09EFE0346002B01D0FFF7E5
:1099D0007EFE00233B6200237B6207F120031946D1
:1099E000164802F013FD0346002B01D0FFF76FFE6F
:1099F00060237B600023BB600223FB6000237B614C
:109A00003B1D002219460D4802F076F80346002B54
:109A100001D0FFF75CFE3B1D04221946074802F007
:109A20006BF80346002B01D0FFF751FE034800F00E
:109A3000CDF800BF3837BD4680BD00BF2C010020E7
:109A40000004004080B58EB000AF07F1280300226B
:109A50001A605A609A60DA6007F1200300221A60E7
:109A60005A603B1D00221A605A609A60DA601A61DF
:109A70005A619A612C4B2D4A1A602B4B41F6FF021A
:109A80005A60294B00229A60274B6322DA60264BEA
:109A900000221A61244B00229A61234801F080FDC4
:109AA0000346002B01D0FFF712FE4FF48053BB6238
:109AB00007F1280319461C4802F0E0F80346002B82
:109AC00001D0FFF704FE184801F01CFE0346002BEE
:109AD00001D0FFF7FCFD00233B6200237B6207F10E
:109AE00020031946104802F091FC0346002B01D0D8
:109AF000FFF7EDFD60237B600023BB600223FB606A
:109B000000237B613B1D00221946074801F0F4FF4A
:109B10000346002B01D0FFF7DAFD034800F056F8AA
:109B200000BF3837BD4680BD7401002000080040EA
:109B300080B487B000AF78607B681B681F4A93428F
:109B40000ED100237B611E4B5B6C1D4A43F0010369
:109B500053641B4B5B6C03F001037B617B6926E064
:109B60007B681B68174A93420ED100233B61144B5C
:109B70001B6C134A43F002031364114B1B6C03F07C
:109B800002033B613B6912E07B681B680E4A93420B
:109B90000DD10023FB600A4B1B6C094A43F0040300
:109BA0001364074B1B6C03F00403FB60FB6800BFEE
:109BB0001C37BD465DF8047B704700BF00000140C4
:109BC00000380240000400400008004080B58AB020
:109BD00000AF786007F1140300221A605A609A609F
:109BE000DA601A617B681B68244A93421ED1002305
:109BF0003B61234B1B6B224A43F001031363204B51
:109C00001B6B03F001033B613B69C0237B610223B3
:109C1000BB610023FB6100233B6202237B6207F1EF
:109C200014031946174800F07BFE22E07B681B688E
:109C3000154A93421DD10023FB60114B1B6B104A48
:109C400043F0020313630E4B1B6B03F00203FB6034
:109C5000FB6840237B610223BB610023FB6100237F
:109C60003B6202237B6207F114031946074800F0A8
:109C700057FE00BF2837BD4680BD00BF000400402E
:109C8000003802400000024000080040000402408A
:109C900080B500AF114B124A1A60104B4FF41652A8
:109CA0005A600E4B00229A600C4B0022DA600B4B7C
:109CB00000221A61094B0C225A61084B00229A615A
:109CC000064B0022DA61054802F022FC0346002B15
:109CD00001D0FFF7FCFC00BF80BD00BFBC0100202D
:109CE0000010014080B500AF114B124A1A60104BB2
:109CF0004FF416525A600E4B00229A600C4B002211
:109D0000DA600B4B00221A61094B0C225A61084B96
:109D100000229A61064B0022DA61054802F0F8FB46
:109D20000346002B01D0FFF7D2FC00BF80BD00BF6F
:109D3000040200200044004080B500AF114B124ADD
:109D40001A60104B4FF416525A600E4B00229A6064
:109D50000C4B0022DA600B4B00221A61094B0C22DB
:109D60005A61084B00229A61064B0022DA610548CD
:109D700002F0CEFB0346002B01D0FFF7A8FC00BF8A
:109D800080BD00BF4C0200200014014080B58EB0A1
:109D900000AF786007F1240300221A605A609A60CD
:109DA000DA601A617B681B684C4A93422DD100230C
:109DB0003B624B4B5B6C4A4A43F010035364484B85
:109DC0005B6C03F010033B623B6A0023FB61444B76
:109DD0001B6B434A43F001031363414B1B6B03F0BE
:109DE0000103FB61FB694FF4C0637B620223BB622A
:109DF0000023FB6203233B6307237B6307F12403F8
:109E00001946384800F08CFD63E07B681B68364AD1
:109E100093422CD10023BB61314B1B6C304A43F47D
:109E2000003313642E4B1B6C03F40033BB61BB691E
:109E300000237B612A4B1B6B294A43F00103136308
:109E4000274B1B6B03F001037B617B690C237B6257
:109E50000223BB620023FB6203233B6307237B6374
:109E600007F1240319461F4800F05AFD31E07B68D2
:109E70001B681E4A93422CD100233B61184B5B6C3C
:109E8000174A43F020035364154B5B6C03F0200327
:109E90003B613B690023FB60114B1B6B104A43F095
:109EA000010313630E4B1B6B03F00103FB60FB68A4
:109EB0004FF4C0537B620223BB620023FB62032387
:109EC0003B6308237B6307F124031946054800F030
:109ED00027FD00BF3837BD4680BD00BF00100140E0
:109EE00000380240000002400044004000140140DD
:109EF000DFF834D0FFF7BEFC0C480D490D4A0023B3
:109F000002E0D458C4500433C4188C42F9D30A4A2E
:109F10000A4C002301E013600432A242FBD305F097
:109F200035FDFFF731FB70470000012000000020E5
:109F30001000002050FB000810000020E84B00201B
:109F4000FEE7000080B500AF0E4B1B680D4A43F4DE
:109F5000007313600B4B1B680A4A43F48063136061
:109F6000084B1B68074A43F480731360032000F01A
:109F70009DFC0F20FFF7E2FBFFF7AEFB0023184626
:109F800080BD00BF003C024080B400AF064B1B7890
:109F90001A46064B1B681344044A136000BFBD46B3
:109FA0005DF8047B704700BF080000209402002089
:109FB00080B400AF034B1B681846BD465DF8047BB8
:109FC000704700BF9402002080B584B000AF786075
:109FD0000023FB737B68002B01D1012333E07B68F6
:109FE0001B6C002B09D17868FEF7D4FF7B68002238
:109FF0005A647B68002283F83C207B681B6C03F06A
:10A000001003002B18D17B681B6C23F4885323F0BA
:10A01000020343F002027B681A64786800F086FA53
:10A020007B6800225A647B681B6C23F0030343F0B7
:10A0300001027B681A6401E00123FB737B68002244
:10A0400083F83C20FB7B18461037BD4680BD0000DE
:10A0500080B485B000AF78600023BB607B6893F864
:10A060003C30012B01D1022397E07B68012283F869
:10A070003C207B681B689B6803F00103012B18D010
:10A080007B681B689A687B681B6842F001029A60D3
:10A09000454B1B68454AA2FB03239A0C13465B0001
:10A0A0001344BB6002E0BB68013BBB60BB68002B94
:10A0B000F9D17B681B689B6803F00103012B5FD11A
:10A0C0007B681B6C23F4E06323F0010343F480728C
:10A0D0007B681A647B681B685B6803F48063002BF1
:10A0E00007D07B681B6C23F4405343F480527B6899
:10A0F0001A647B681B6C03F48053B3F5805F06D150
:10A100007B685B6C23F006027B685A6402E07B6824
:10A1100000225A647B68002283F83C20244BFB60B9
:10A120007B681B686FF022021A60FB685B6803F0B3
:10A130001F03002B0FD17B681B689B6803F0405303
:10A14000002B29D17B681B689A687B681B6842F0EA
:10A1500080429A6020E07B681B68164A93421BD1BC
:10A160007B681B689B6803F04053002B14D17B680D
:10A170001B689A687B681B6842F080429A600BE01B
:10A180007B681B6C43F010027B681A647B685B6C15
:10A1900043F001027B685A64002318461437BD4619
:10A1A0005DF8047B704700BF0000002083DE1B4386
:10A1B000002301400020014080B584B000AF7860EA
:10A1C00039600023FB607B681B689B6803F4806335
:10A1D000B3F5806F13D17B681B689B6803F48073B1
:10A1E000B3F5807F0BD17B681B6C43F020027B684A
:10A1F0001A647B68002283F83C20012363E0FFF7A8
:10A20000D7FEF86021E03B68B3F1FF3F1DD03B680B
:10A21000002B07D0FFF7CCFE0246FB68D31A3A6842
:10A220009A4212D27B681B681B6803F00203022B60
:10A230000BD07B681B6C43F004027B681A647B685C
:10A24000002283F83C2003233DE07B681B681B68E9
:10A2500003F00203022BD6D17B681B686FF0120259
:10A260001A607B681B6C43F400727B681A647B681D
:10A270001B689B6803F04053002B23D17B681B7E37
:10A28000002B1FD17B681B68DB6A03F47003002B73
:10A2900006D07B681B689B6803F48063002B11D198
:10A2A0007B681B6C23F480727B681A647B681B6C70
:10A2B00003F48053002B05D17B681B6C43F0010233
:10A2C0007B681A64002318461037BD4680BD80B4F1
:10A2D00083B000AF78607B681B68DB6C18460C3776
:10A2E000BD465DF8047B704780B485B000AF7860F0
:10A2F00039600023BB607B6893F83C30012B01D1AF
:10A30000022305E17B68012283F83C203B681B683F
:10A31000092B25D97B681B68D9683B681B689BB2F1
:10A320001A4613465B0013441E3B072202FA03F34E
:10A33000DA437B681B680A40DA607B681B68D9686F
:10A340003B689A683B681B689BB2184603465B00F3
:10A3500003441E3B9A407B681B680A43DA6022E094
:10A360007B681B6819693B681B689BB21A461346D9
:10A370005B001344072202FA03F3DA437B681B688D
:10A380000A401A617B681B6819693B689A683B68D8
:10A390001B689BB2184603465B0003449A407B68E7
:10A3A0001B680A431A613B685B68062B24D87B68EC
:10A3B0001B68596B3B685A6813469B001344053B66
:10A3C0001F2202FA03F3DA437B681B680A405A63D0
:10A3D0007B681B68596B3B681B689BB218463B68DF
:10A3E0005A6813469B001344053B00FA03F27B684E
:10A3F0001B680A435A634CE03B685B680C2B24D80B
:10A400007B681B68196B3B685A6813469B001344B2
:10A41000233B1F2202FA03F3DA437B681B680A40DE
:10A420001A637B681B68196B3B681B689BB21846F4
:10A430003B685A6813469B001344233B00FA03F21F
:10A440007B681B680A431A6323E07B681B68D96A30
:10A450003B685A6813469B001344413B1F2202FA93
:10A4600003F3DA437B681B680A40DA627B681B6887
:10A47000D96A3B681B689BB218463B685A6813460A
:10A480009B001344413B00FA03F27B681B680A43BC
:10A49000DA62224BFB607B681B68214A934209D138
:10A4A0003B681B68122B05D1FB685B6843F4800294
:10A4B000FB685A607B681B68194A934223D13B684A
:10A4C0001B68102B03D03B681B68112B1BD1FB684A
:10A4D0005B6843F40002FB685A603B681B68102B02
:10A4E00011D1104B1B68104AA2FB03239A0C134690
:10A4F0009B0013445B00BB6002E0BB68013BBB6098
:10A50000BB68002BF9D17B68002283F83C20002334
:10A5100018461437BD465DF8047B704700230140A0
:10A52000002001400000002083DE1B4380B485B082
:10A5300000AF7860794BFB60FB685B6823F44032C6
:10A54000FB685A60FB685A687B685B681A43FB6863
:10A550005A607B681B685A687B681B6822F48072AB
:10A560005A607B681B6859687B681B691A027B68A4
:10A570001B680A435A607B681B685A687B681B68C3
:10A5800022F040725A607B681B6859687B689A6841
:10A590007B681B680A435A607B681B689A687B6803
:10A5A0001B6822F400629A607B681B6899687B686C
:10A5B000DA687B681B680A439A607B689B6A584A22
:10A5C000934222D07B681B689A687B681B6822F0E4
:10A5D00070629A607B681B6899687B689A6A7B687E
:10A5E0001B680A439A607B681B689A687B681B68D3
:10A5F00022F040529A607B681B6899687B68DA6A2F
:10A600007B681B680A439A600FE07B681B689A6846
:10A610007B681B6822F070629A607B681B689A688E
:10A620007B681B6822F040529A607B681B689A68BE
:10A630007B681B6822F002029A607B681B6899683D
:10A640007B681B7E5A007B681B680A439A607B68A4
:10A6500093F82030002B1BD07B681B685A687B68FE
:10A660001B6842F400625A607B681B685A687B680A
:10A670001B6822F460425A607B681B6859687B68DB
:10A680005B6A013B5A037B681B680A435A6007E018
:10A690007B681B685A687B681B6822F400625A60FA
:10A6A0007B681B68DA6A7B681B6822F47002DA62D6
:10A6B0007B681B68D96A7B68DB69013B1A057B688C
:10A6C0001B680A43DA627B681B689A687B681B68B0
:10A6D00022F400729A607B681B6899687B6893F823
:10A6E00030305A027B681B680A439A607B681B689B
:10A6F0009A687B681B6822F480629A607B681B689A
:10A7000099687B685B699A027B681B680A439A6058
:10A7100000BF1437BD465DF8047B7047002301403D
:10A720000100000F80B485B000AF78607B6803F053
:10A730000703FB600C4BDB68BB60BA684FF6FF0396
:10A740001340BB60FB681A02BB68134343F0BF634E
:10A7500043F40033BB60044ABB68D36000BF1437C6
:10A76000BD465DF8047B704700ED00E080B400AFAB
:10A77000044BDB681B0A03F007031846BD465DF86F
:10A78000047B704700ED00E080B483B000AF034667
:10A79000FB7197F90730002B0BDBFB7903F01F02ED
:10A7A000074997F907305B09012000FA02F241F8E6
:10A7B000232000BF0C37BD465DF8047B704700BF07
:10A7C00000E100E080B483B000AF03463960FB7164
:10A7D00097F90730002B0ADB3B68DAB20C4997F98E
:10A7E00007301201D2B20B4483F800230AE03B6821
:10A7F000DAB20849FB7903F00F03043B1201D2B22D
:10A800000B441A7600BF0C37BD465DF8047B7047D9
:10A8100000E100E000ED00E080B489B000AFF86036
:10A82000B9607A60FB6803F00703FB61FB69C3F161
:10A830000703042B28BF0423BB61FB690433062BE9
:10A8400002D9FB69033B00E000237B614FF0FF323C
:10A85000BB6902FA03F3DA43BB681A407B699A408A
:10A860004FF0FF317B6901FA03F3D9437B680B405A
:10A87000134318462437BD465DF8047B704700003B
:10A8800080B400AFBFF34F8F00BF064BDB6803F40B
:10A89000E0620449044B1343CB60BFF34F8F00BF0A
:10A8A00000BFFDE700ED00E00400FA0580B582B0CE
:10A8B00000AF78607868FFF735FF00BF0837BD4606
:10A8C00080BD80B586B000AF0346B9607A60FB7387
:10A8D00000237B61FFF74AFF78617A68B96878697D
:10A8E000FFF79AFF024697F90F3011461846FFF717
:10A8F00069FF00BF1837BD4680BD80B582B000AF8C
:10A900000346FB7197F907301846FFF73DFF00BF7C
:10A910000837BD4680BD80B500AFFFF7B1FF00002E
:10A9200080B489B000AF7860396000237B61002378
:10A930003B610023BB610023FB6159E10122FB69FC
:10A9400002FA03F37B613B681B687A6913403B6141
:10A950003A697B699A4240F048813B685B6803F042
:10A960000303012B05D03B685B6803F00303022B54
:10A9700030D17B689B68BB61FB695B00032202FAF4
:10A9800003F3DB43BA691340BB613B68DA68FB69D8
:10A990005B0002FA03F3BA691343BB617B68BA69CF
:10A9A0009A607B685B68BB610122FB6902FA03F372
:10A9B000DB43BA691340BB613B685B681B0903F06A
:10A9C0000102FB6902FA03F3BA691343BB617B68B6
:10A9D000BA695A603B685B6803F00303032B17D026
:10A9E0007B68DB68BB61FB695B00032202FA03F34F
:10A9F000DB43BA691340BB613B689A68FB695B0043
:10AA000002FA03F3BA691343BB617B68BA69DA607F
:10AA10003B685B6803F00303022B23D1FB69DA0870
:10AA20007B68083253F82230BB61FB6903F00703EF
:10AA30009B000F2202FA03F3DB43BA691340BB61A8
:10AA40003B681A69FB6903F007039B0002FA03F3F2
:10AA5000BA691343BB61FB69DA087B680832B969DC
:10AA600043F822107B681B68BB61FB695B00032213
:10AA700002FA03F3DB43BA691340BB613B685B68CE
:10AA800003F00302FB695B0002FA03F3BA691343A4
:10AA9000BB617B68BA691A603B685B6803F440334A
:10AAA000002B00F0A2800023FB60574B5B6C564AE2
:10AAB00043F480435364544B5B6C03F48043FB606A
:10AAC000FB68524AFB699B08023352F82330BB6192
:10AAD000FB6903F003039B000F2202FA03F3DB433D
:10AAE000BA691340BB617B68494A934219D07B68BD
:10AAF000484A934213D07B68474A93420DD07B6803
:10AB0000464A934207D07B68454A934201D10423C9
:10AB100008E0072306E0032304E0022302E0012308
:10AB200000E00023FA6902F0030292009340BA6940
:10AB30001343BB613549FB699B080233BA6941F88D
:10AB40002320384B9B68BB613B69DB43BA691340E8
:10AB5000BB613B685B6803F48013002B03D0BA69C8
:10AB60003B691343BB612F4ABB6993602D4BDB6884
:10AB7000BB613B69DB43BA691340BB613B685B68FF
:10AB800003F40013002B03D0BA693B691343BB6184
:10AB9000244ABB69D360234B5B68BB613B69DB43E1
:10ABA000BA691340BB613B685B6803F40033002B58
:10ABB00003D0BA693B691343BB611A4ABB6953604E
:10ABC000184B1B68BB613B69DB43BA691340BB612F
:10ABD0003B685B6803F48033002B03D0BA693B69A0
:10ABE0001343BB610F4ABB691360FB690133FB610F
:10ABF000FB690F2B7FF6A2AE00BF00BF2437BD4616
:10AC00005DF8047B704700BF003802400038014007
:10AC1000000002400004024000080240000C024014
:10AC200000100240003C014080B485B000AF786065
:10AC30000B467B807B681A697B881340002B02D00F
:10AC40000123FB7301E00023FB73FB7B18461437E1
:10AC5000BD465DF8047B704780B483B000AF786078
:10AC60000B467B8013467B707B78002B03D07A8861
:10AC70007B689A6103E07B881A047B689A6100BF55
:10AC80000C37BD465DF8047B7047000080B586B088
:10AC900000AF78607B68002B01D1012367E27B68FD
:10ACA0001B6803F00103002B75D0884B9B6803F0F1
:10ACB0000C03042B0CD0854B9B6803F00C03082B72
:10ACC00012D1824B5B6803F48003B3F5800F0BD184
:10ACD0007E4B1B6803F40033002B5BD07B685B6802
:10ACE000002B57D1012342E27B685B68B3F5803FBC
:10ACF00006D1764B1B68754A43F4803313601DE020
:10AD00007B685B68B3F5A02F0CD1704B1B686F4A52
:10AD100043F4802313606D4B1B686C4A43F480330B
:10AD200013600BE0694B1B68684A23F4803313609F
:10AD3000664B1B68654A23F4802313607B685B685D
:10AD4000002B13D0FFF734F9386108E0FFF730F932
:10AD500002463B69D31A642B01D9032307E25B4BFC
:10AD60001B6803F40033002BF0D014E0FFF720F948
:10AD7000386108E0FFF71CF902463B69D31A642BDF
:10AD800001D90323F3E1514B1B6803F40033002B7B
:10AD9000F0D100E000BF7B681B6803F00203002BCA
:10ADA00063D04A4B9B6803F00C03002B0BD0474B3E
:10ADB0009B6803F00C03082B1CD1444B5B6803F425
:10ADC0008003002B16D1414B1B6803F00203002BBC
:10ADD00005D07B68DB68012B01D00123C7E13B4B29
:10ADE0001B6823F0F8027B681B69DB0037491343BB
:10ADF0000B603AE07B68DB68002B20D0344B0122EB
:10AE00001A60FFF7D5F8386108E0FFF7D1F802467D
:10AE10003B69D31A022B01D90323A8E12B4B1B68F2
:10AE200003F00203002BF0D0284B1B6823F0F8023C
:10AE30007B681B69DB00254913430B6015E0244B3D
:10AE400000221A60FFF7B4F8386108E0FFF7B0F8A5
:10AE500002463B69D31A022B01D9032387E11B4B1E
:10AE60001B6803F00203002BF0D17B681B6803F022
:10AE70000803002B36D07B685B69002B16D0154B7E
:10AE800001221A60FFF794F8386108E0FFF790F8A4
:10AE900002463B69D31A022B01D9032367E10B4B0E
:10AEA0005B6F03F00203002BF0D01BE0094B002284
:10AEB0001A60FFF77DF838610EE0FFF779F8024677
:10AEC0003B69D31A022B07D9032350E10038024013
:10AED00000004742800E4742884B5B6F03F002033D
:10AEE000002BEAD17B681B6803F00403002B00F001
:10AEF00097800023FB75814B1B6C03F08053002B64
:10AF00000FD10023BB607D4B1B6C7C4A43F0805308
:10AF100013647A4B1B6C03F08053BB60BB68012346
:10AF2000FB75774B1B6803F48073002B18D1744BAF
:10AF30001B68734A43F480731360FFF739F8386174
:10AF400008E0FFF735F802463B69D31A022B01D916
:10AF500003230CE16A4B1B6803F48073002BF0D0D1
:10AF60007B689B68012B06D1644B1B6F634A43F0DF
:10AF7000010313671CE07B689B68052B0CD15F4BBA
:10AF80001B6F5E4A43F0040313675C4B1B6F5B4A05
:10AF900043F0010313670BE0584B1B6F574A23F034
:10AFA00001031367554B1B6F544A23F004031367C7
:10AFB0007B689B68002B15D0FEF7FAFF38610AE02A
:10AFC000FEF7F6FF02463B69D31A41F288329342FC
:10AFD00001D90323CBE0494B1B6F03F00203002B85
:10AFE000EED014E0FEF7E4FF38610AE0FEF7E0FF80
:10AFF00002463B69D31A41F28832934201D90323B6
:10B00000B5E03E4B1B6F03F00203002BEED1FB7D3E
:10B01000012B05D1394B1B6C384A23F08053136444
:10B020007B689B69002B00F0A180344B9B6803F088
:10B030000C03082B5CD07B689B69022B41D1314B00
:10B0400000221A60FEF7B4FF386108E0FEF7B0FF97
:10B0500002463B69D31A022B01D9032387E0274B11
:10B060001B6803F00073002BF0D17B68DA697B6802
:10B070001B6A1A437B685B6A9B011A437B689B6A65
:10B080005B08013B1B041A437B68DB6A1B061B49F8
:10B0900013434B601B4B01221A60FEF789FF386196
:10B0A00008E0FEF785FF02463B69D31A022B01D95F
:10B0B00003235CE0114B1B6803F00073002BF0D0FE
:10B0C00054E0104B00221A60FEF772FF386108E06E
:10B0D000FEF76EFF02463B69D31A022B01D9032308
:10B0E00045E0064B1B6803F00073002BF0D13DE0F8
:10B0F0007B689B69012B07D1012338E000380240AF
:10B1000000700040600047421B4B5B68FB607B683F
:10B110009B69012B28D0FB6803F480027B68DB6904
:10B120009A4221D1FB6803F03F027B681B6A9A4276
:10B130001AD1FA6847F6C07313407A68526A9201CE
:10B14000934211D1FB6803F440327B689B6A5B0831
:10B15000013B1B049A4207D1FB6803F070627B68D5
:10B16000DB6A1B069A4201D0012300E00023184647
:10B170001837BD4680BD00BF0038024080B584B09E
:10B1800000AF786039607B68002B01D10123CCE0EF
:10B19000684B1B6803F007033A689A420CD9654B69
:10B1A0003A68D2B21A70634B1B6803F007033A681F
:10B1B0009A4201D00123B8E07B681B6803F00203C8
:10B1C000002B20D07B681B6803F00403002B05D004
:10B1D000594B9B68584A43F4E05393607B681B6863
:10B1E00003F00803002B05D0534B9B68524A43F4ED
:10B1F00060439360504B9B6823F0F0027B689B6830
:10B200004D4913438B607B681B6803F00103002BDF
:10B2100044D07B685B68012B07D1474B1B6803F464
:10B220000033002B19D101237FE07B685B68022B80
:10B2300003D07B685B68032B07D13F4B1B6803F08F
:10B240000073002B09D101236FE03B4B1B6803F017
:10B250000203002B01D1012367E0374B9B6823F0E9
:10B2600003027B685B68344913438B60FEF7A0FEE2
:10B27000F8600AE0FEF79CFE0246FB68D31A41F232
:10B280008832934201D903234FE02B4B9B6803F094
:10B290000C027B685B689B009A42EBD1254B1B68D4
:10B2A00003F007033A689A420CD2224B3A68D2B2B2
:10B2B0001A70204B1B6803F007033A689A4201D0CA
:10B2C000012332E07B681B6803F00403002B08D0E5
:10B2D000194B9B6823F4E0527B68DB6816491343E3
:10B2E0008B607B681B6803F00803002B09D0124BAE
:10B2F0009B6823F460427B681B69DB000E491343A3
:10B300008B6000F021F802460B4B9B681B0903F091
:10B310000F030A49CB5C22FA03F3094A1360094B75
:10B320001B681846FEF70AFA002318461037BD4678
:10B3300080BD00BF003C02400038024028FB0008EE
:10B3400000000020040000202DE9B04F90B000AFB5
:10B3500000237B630023FB6300233B630023BB6369
:10B36000594B9B6803F00C03082B0DD0082B00F2FF
:10B37000A180002B02D0042B03D09BE0534BBB6376
:10B380009BE0534BBB6398E04F4B5B6803F03F037C
:10B390007B634D4B5B6803F48003002B28D04A4B42
:10B3A0005B689B0900223B627A623B6AC3F3080038
:10B3B0000021474B03FB01F2002300FB03F313447E
:10B3C000434AA0FB0212FA620A46BA62FA6A1344BE
:10B3D000FB627B6B0022BB61FA61D7E90623D7E9E8
:10B3E0000A01FDF7EBFA02460B461346FB6353E0F6
:10B3F000354B5B689B0900223B617A613B69C3F373
:10B40000080A4FF0000B52465B464FF000004FF029
:10B410000001590141EAD261500102460B46B2EBEC
:10B420000A0863EB0B094FF000024FF000034FEAEC
:10B43000891343EA98634FEA8812B2EB080463EB7E
:10B4400009054FF000024FF00003EB0043EA54738C
:10B45000E20014461D4614EB0A033B6045EB0B0368
:10B460007B604FF000024FF00003D7E9004529460A
:10B470008B02214643EA915321468A02104619461F
:10B480007B6B0022BB60FA60D7E90223FDF796FAD6
:10B4900002460B461346FB630B4B5B681B0C03F029
:10B4A000030301335B003B63FA6B3B6BB2FBF3F3CB
:10B4B000BB6302E0054BBB6300BFBB6B1846403764
:10B4C000BD46BDE8B08F00BF003802400024F40044
:10B4D00040787D0180B400AF034B1B681846BD4621
:10B4E0005DF8047B704700BF0000002080B500AF0E
:10B4F000FFF7F0FF0246054B9B689B0A03F007032A
:10B500000349CB5C22FA03F3184680BD00380240A1
:10B5100038FB000880B500AFFFF7DCFF0246054BA3
:10B520009B685B0B03F007030349CB5C22FA03F330
:10B53000184680BD0038024038FB000880B483B054
:10B5400000AF786039607B680F221A60124B9B68ED
:10B5500003F003027B685A600F4B9B6803F0F00214
:10B560007B689A600C4B9B6803F4E0527B68DA605E
:10B57000094B9B68DB0803F4E0527B681A61074BB8
:10B580001B6803F007023B681A6000BF0C37BD461A
:10B590005DF8047B704700BF00380240003C024069
:10B5A00080B582B000AF78607B68002B01D10123A9
:10B5B00041E07B6893F83D30DBB2002B06D17B681D
:10B5C000002283F83C207868FEF7B2FA7B680222FA
:10B5D00083F83D207B681A687B680433194610465F
:10B5E00000F03CFC7B68012283F846207B68012246
:10B5F00083F83E207B68012283F83F207B6801228C
:10B6000083F840207B68012283F841207B68012277
:10B6100083F842207B68012283F843207B68012263
:10B6200083F844207B68012283F845207B6801224F
:10B6300083F83D20002318460837BD4680BD000032
:10B6400080B485B000AF78607B6893F83D30DBB2A2
:10B65000012B01D0012344E07B68022283F83D20C6
:10B660007B681B68DA687B681B6842F00102DA605D
:10B670007B681B681E4A934218D07B681B68B3F135
:10B68000804F13D07B681B681A4A93420ED07B68A8
:10B690001B68194A934209D07B681B68174A93427A
:10B6A00004D07B681B68164A934211D17B681B68E3
:10B6B0009B6803F00703FB60FB68062B10D07B68D8
:10B6C0001B681A687B681B6842F001021A6007E079
:10B6D0007B681B681A687B681B6842F001021A606D
:10B6E000002318461437BD465DF8047B704700BF41
:10B6F000000001400004004000080040000C004031
:10B700000040014080B582B000AF78607B68002BBC
:10B7100001D1012341E07B6893F83D30DBB2002B7F
:10B7200006D17B68002283F83C20786800F039F865
:10B730007B68022283F83D207B681A687B680433AB
:10B740001946104600F08AFB7B68012283F84620E8
:10B750007B68012283F83E207B68012283F83F202A
:10B760007B68012283F840207B68012283F8412016
:10B770007B68012283F842207B68012283F8432002
:10B780007B68012283F844207B68012283F84520EE
:10B790007B68012283F83D20002318460837BD4608
:10B7A00080BD80B483B000AF786000BF0C37BD4669
:10B7B0005DF8047B7047000080B584B000AF78600E
:10B7C00039603B68002B09D17B6893F83E30DBB2CF
:10B7D000012B14BF01230023DBB222E03B68042BC2
:10B7E00009D17B6893F83F30DBB2012B14BF0123F2
:10B7F0000023DBB215E03B68082B09D17B6893F886
:10B800004030DBB2012B14BF01230023DBB208E080
:10B810007B6893F84130DBB2012B14BF0123002376
:10B82000DBB2002B01D0012368E03B68002B04D180
:10B830007B68022283F83E2013E03B68042B04D18E
:10B840007B68022283F83F200BE03B68082B04D181
:10B850007B68022283F8402003E07B68022283F8A1
:10B8600041207B681B6801223968184600F0A8FD5A
:10B870007B681B68234A934207D17B681B685A6C1C
:10B880007B681B6842F400425A647B681B681D4A4F
:10B89000934218D07B681B68B3F1804F13D07B684C
:10B8A0001B68194A93420ED07B681B68174A934263
:10B8B00009D07B681B68164A934204D07B681B68DA
:10B8C000144A934211D17B681B689B6803F00703FD
:10B8D000FB60FB68062B10D07B681B681A687B68CE
:10B8E0001B6842F001021A6007E07B681B681A6857
:10B8F0007B681B6842F001021A600023184610376B
:10B90000BD4680BD0000014000040040000800402A
:10B91000000C00400040014080B584B000AF78606A
:10B920007B681B68DB68FB607B681B681B69BB600E
:10B93000BB6803F00203002B20D0FB6803F0020376
:10B94000002B1BD07B681B686FF002021A617B68BA
:10B9500001221A777B681B689B6903F00303002BA5
:10B9600003D0786800F05BFA05E0786800F04DFAE3
:10B97000786800F05EFA7B6800221A77BB6803F0F3
:10B980000403002B20D0FB6803F00403002B1BD022
:10B990007B681B686FF004021A617B6802221A77C9
:10B9A0007B681B689B6903F44073002B03D07868A5
:10B9B00000F035FA05E0786800F027FA786800F0C2
:10B9C00038FA7B6800221A77BB6803F00803002B63
:10B9D00020D0FB6803F00803002B1BD07B681B689A
:10B9E0006FF008021A617B6804221A777B681B6873
:10B9F000DB6903F00303002B03D0786800F00FFA33
:10BA000005E0786800F001FA786800F012FA7B68C7
:10BA100000221A77BB6803F01003002B20D0FB68CC
:10BA200003F01003002B1BD07B681B686FF0100223
:10BA30001A617B6808221A777B681B68DB6903F44C
:10BA40004073002B03D0786800F0E9F905E07868CE
:10BA500000F0DBF9786800F0ECF97B6800221A77D7
:10BA6000BB6803F00103002B0CD0FB6803F001035B
:10BA7000002B07D07B681B686FF001021A617868A1
:10BA8000FDF716FEBB6803F08003002B0CD0FB68AB
:10BA900003F08003002B07D07B681B686FF08002E7
:10BAA0001A61786800F02AFDBB6803F04003002BA0
:10BAB0000CD0FB6803F04003002B07D07B681B68A9
:10BAC0006FF040021A61786800F0BDF9BB6803F0BE
:10BAD0002003002B0CD0FB6803F02003002B07D0C1
:10BAE0007B681B686FF020021A61786800F0FCFC2C
:10BAF00000BF1037BD4680BD80B586B000AFF8608E
:10BB0000B9607A600023FB75FB6893F83C30012B29
:10BB100001D10223AEE0FB68012283F83C207B6860
:10BB20000C2B00F29F8001A252F823F061BB0008A9
:10BB300065BC000865BC000865BC0008A1BB000826
:10BB400065BC000865BC000865BC0008E3BB0008D4
:10BB500065BC000865BC000865BC000823BC000883
:10BB6000FB681B68B968184600F004FAFB681B689C
:10BB70009A69FB681B6842F008029A61FB681B68BF
:10BB80009A69FB681B6822F004029A61FB681B68D3
:10BB90009969BB681A69FB681B680A439A6164E08B
:10BBA000FB681B68B968184600F04AFAFB681B6816
:10BBB0009A69FB681B6842F400629A61FB681B6823
:10BBC0009A69FB681B6822F480629A61FB681B68B3
:10BBD0009969BB681B691A02FB681B680A439A6172
:10BBE00043E0FB681B68B968184600F095FAFB68EB
:10BBF0001B68DA69FB681B6842F00802DA61FB68BF
:10BC00001B68DA69FB681B6822F00402DA61FB68D2
:10BC10001B68D969BB681A69FB681B680A43DA614B
:10BC200023E0FB681B68B968184600F0DFFAFB6880
:10BC30001B68DA69FB681B6842F40062DA61FB6822
:10BC40001B68DA69FB681B6822F48062DA61FB68B2
:10BC50001B68D969BB681B691A02FB681B680A4329
:10BC6000DA6102E00123FB7500BFFB68002283F864
:10BC70003C20FB7D18461837BD4680BD80B584B09A
:10BC800000AF786039600023FB737B6893F83C3029
:10BC9000012B01D10223B4E07B68012283F83C2010
:10BCA0007B68022283F83D207B681B689B68BB6031
:10BCB000BB6823F07703BB60BB6823F47F43BB60A2
:10BCC0007B681B68BA689A603B681B68B3F5005FC5
:10BCD0003ED0B3F5005F00F28780B3F5805F00F0DF
:10BCE0008680B3F5805F7FD8702B1AD0702B7BD8FD
:10BCF000602B50D0602B77D8502B3CD0502B73D872
:10BD0000402B58D0402B6FD8302B64D0302B6BD8C1
:10BD1000202B60D0202B67D8002B5CD0102B5AD062
:10BD200062E07B6818683B6899683B685A683B68C2
:10BD3000DB6800F025FB7B681B689B68BB60BB6809
:10BD400043F07703BB607B681B68BA689A604FE07A
:10BD50007B6818683B6899683B685A683B68DB6891
:10BD600000F00EFB7B681B689A687B681B6842F4D6
:10BD700080429A603CE07B6818683B6859683B6881
:10BD8000DB681A4600F082FA7B681B68502118466F
:10BD900000F0DBFA2CE07B6818683B6859683B6868
:10BDA000DB681A4600F0A1FA7B681B686021184620
:10BDB00000F0CBFA1CE07B6818683B6859683B6868
:10BDC000DB681A4600F062FA7B681B68402118465F
:10BDD00000F0BBFA0CE07B681A683B681B681946E8
:10BDE000104600F0B2FA03E00123FB7300E000BF4D
:10BDF0007B68012283F83D207B68002283F83C2089
:10BE0000FB7B18461037BD4680BD80B483B000AFC1
:10BE1000786000BF0C37BD465DF8047B704780B486
:10BE200083B000AF786000BF0C37BD465DF8047B7F
:10BE3000704780B483B000AF786000BF0C37BD4658
:10BE40005DF8047B704780B483B000AF786000BFBA
:10BE50000C37BD465DF8047B7047000080B485B0A8
:10BE600000AF786039607B681B68FB607B683A4A8A
:10BE700093420FD07B68B3F1804F0BD07B68374A79
:10BE8000934207D07B68364A934203D07B68354A99
:10BE9000934208D1FB6823F07003FB603B685B684A
:10BEA000FA681343FB607B682B4A93421BD07B6884
:10BEB000B3F1804F17D07B68284A934213D07B6838
:10BEC000274A93420FD07B68264A93420BD07B6867
:10BED000254A934207D07B68244A934203D07B686B
:10BEE000234A934208D1FB6823F44073FB603B680C
:10BEF000DB68FA681343FB60FB6823F080023B6851
:10BF00005B691343FB607B68FA681A603B689A6858
:10BF10007B68DA623B681A687B689A627B680E4AC3
:10BF2000934203D13B681A697B681A637B680122DC
:10BF30005A617B681B6903F00103012B05D17B6803
:10BF40001B6923F001027B681A6100BF1437BD46EC
:10BF50005DF8047B704700BF000001400004004012
:10BF600000080040000C0040004001400044014037
:10BF70000048014080B487B000AF786039607B68CA
:10BF80001B6A7B617B681B6A23F001027B681A6273
:10BF90007B685B683B617B689B69FB60FB6823F0A7
:10BFA0007003FB60FB6823F00303FB603B681B68C6
:10BFB000FA681343FB607B6923F002037B613B68F3
:10BFC0009B687A6913437B617B681C4A93420CD15E
:10BFD0007B6923F008037B613B68DB687A69134364
:10BFE0007B617B6923F004037B617B68134A934286
:10BFF00011D13B6923F480733B613B6923F40073E7
:10C000003B613B685B693A6913433B613B689B69F1
:10C010003A6913433B617B683A695A607B68FA6806
:10C020009A613B685A687B685A637B687A691A62CE
:10C0300000BF1C37BD465DF8047B7047000001401F
:10C0400080B487B000AF786039607B681B6A7B6121
:10C050007B681B6A23F010027B681A627B685B684E
:10C060003B617B689B69FB60FB6823F4E043FB60FA
:10C07000FB6823F44073FB603B681B681B02FA6893
:10C080001343FB607B6923F020037B613B689B6863
:10C090001B017A6913437B617B681E4A93420DD171
:10C0A0007B6923F080037B613B68DB681B017A6955
:10C0B00013437B617B6923F040037B617B68154AF6
:10C0C000934213D13B6923F480633B613B6923F4C2
:10C0D00000633B613B685B699B003A6913433B61CA
:10C0E0003B689B699B003A6913433B617B683A69F3
:10C0F0005A607B68FA689A613B685A687B689A6301
:10C100007B687A691A6200BF1C37BD465DF8047B04
:10C11000704700BF0000014080B487B000AF786076
:10C1200039607B681B6A7B617B681B6A23F48072C1
:10C130007B681A627B685B683B617B68DB69FB60DC
:10C14000FB6823F07003FB60FB6823F00303FB60D4
:10C150003B681B68FA681343FB607B6923F4007338
:10C160007B613B689B681B027A6913437B617B6838
:10C170001D4A93420DD17B6923F400637B613B68C8
:10C18000DB681B027A6913437B617B6923F480635C
:10C190007B617B68144A934213D13B6923F480533B
:10C1A0003B613B6923F400533B613B685B691B01C6
:10C1B0003A6913433B613B689B691B013A6913432E
:10C1C0003B617B683A695A607B68FA68DA613B6870
:10C1D0005A687B68DA637B687A691A6200BF1C3729
:10C1E000BD465DF8047B70470000014080B487B015
:10C1F00000AF786039607B681B6A3B617B681B6AB3
:10C2000023F480527B681A627B685B687B617B6881
:10C21000DB69FB60FB6823F4E043FB60FB6823F40D
:10C220004073FB603B681B681B02FA681343FB60AA
:10C230003B6923F400533B613B689B681B033A69ED
:10C2400013433B617B68104A934209D17B6923F415
:10C2500080437B613B685B699B017A6913437B6127
:10C260007B687A695A607B68FA68DA613B685A6869
:10C270007B681A647B683A691A6200BF1C37BD4646
:10C280005DF8047B704700BF0000014080B487B0B8
:10C2900000AFF860B9607A60FB681B6A7B61FB687D
:10C2A0001B6A23F00102FB681A62FB689B693B6111
:10C2B0003B6923F0F0033B617B681B013A69134340
:10C2C0003B617B6923F00A037B617A69BB68134396
:10C2D0007B61FB683A699A61FB687A691A6200BF00
:10C2E0001C37BD465DF8047B704780B487B000AF53
:10C2F000F860B9607A60FB681B6A7B61FB681B6A47
:10C3000023F01002FB681A62FB689B693B613B6982
:10C3100023F470433B617B681B033A6913433B6121
:10C320007B6923F0A0037B61BB681B017A6913431F
:10C330007B61FB683A699A61FB687A691A6200BF9F
:10C340001C37BD465DF8047B704780B485B000AFF4
:10C35000786039607B689B68FB60FB6823F0700342
:10C36000FB603A68FB68134343F00703FB607B689C
:10C37000FA689A6000BF1437BD465DF8047B7047C9
:10C3800080B487B000AFF860B9607A603B60FB684A
:10C390009B687B617B6923F47F437B613B681A0266
:10C3A0007B681A43BB6813437A6913437B61FB685C
:10C3B0007A699A6000BF1C37BD465DF8047B704700
:10C3C00080B487B000AFF860B9607A60BB6803F0F2
:10C3D0001F03012202FA03F37B61FB681A6A7B697F
:10C3E000DB431A40FB681A62FB681A6ABB6803F0F9
:10C3F0001F03796801FA03F31A43FB681A6200BF4E
:10C400001C37BD465DF8047B7047000080B485B0E2
:10C4100000AF786039607B6893F83C30012B01D124
:10C42000022350E07B68012283F83C207B680222D3
:10C4300083F83D207B681B685B68FB607B681B683A
:10C440009B68BB60FB6823F07003FB603B681B6864
:10C45000FA681343FB607B681B68FA685A607B6864
:10C460001B681C4A934218D07B681B68B3F1804F4D
:10C4700013D07B681B68184A93420ED07B681B68F8
:10C48000164A934209D07B681B68154A934204D030
:10C490007B681B68134A93420CD1BB6823F080036E
:10C4A000BB603B685B68BA681343BB607B681B6812
:10C4B000BA689A607B68012283F83D207B6800227D
:10C4C00083F83C20002318461437BD465DF8047BF2
:10C4D000704700BF00000140000400400008004019
:10C4E000000C00400040014080B483B000AF786091
:10C4F00000BF0C37BD465DF8047B704780B483B045
:10C5000000AF786000BF0C37BD465DF8047B704714
:10C5100080B582B000AF78607B68002B01D1012329
:10C5200042E07B6893F84130DBB2002B06D17B6898
:10C53000002283F840207868FDF728FC7B682422DD
:10C5400083F841207B681B68DA687B681B6822F4EB
:10C550000052DA60786800F009FA7B681B681A6993
:10C560007B681B6822F490421A617B681B685A69D9
:10C570007B681B6822F02A025A617B681B68DA68B4
:10C580007B681B6842F40052DA607B6800225A64C0
:10C590007B68202283F841207B68202283F8422098
:10C5A0007B6800225A63002318460837BD4680BDC9
:10C5B00080B58AB002AFF860B9603B601346FB807B
:10C5C00000237B61FB6893F84130DBB2202B75D1EF
:10C5D000BB68002B02D0FB88002B01D101236EE049
:10C5E000FB6800225A64FB68212283F84120FDF792
:10C5F000DFFC7861FB68FA889A84FB68FA88DA8441
:10C60000FB689B68B3F5805F08D1FB681B69002B52
:10C6100004D10023FB61BB68BB6103E0BB68FB6125
:10C620000023BB612EE03B6800937B6900228021E0
:10C63000F86800F0DFF80346002B05D0FB682022E5
:10C6400083F8412003233AE0FB69002B0BD1BB693F
:10C650001B881A46FB681B68C2F308025A60BB6954
:10C660000233BB6107E0FB691A78FB681B685A60FC
:10C67000FB690133FB61FB68DB8C9BB2013B9AB227
:10C68000FB68DA84FB68DB8C9BB2002BCBD13B6868
:10C6900000937B6900224021F86800F0ABF8034664
:10C6A000002B05D0FB68202283F84120032306E0FD
:10C6B000FB68202283F84120002300E00223184673
:10C6C0002037BD4680BD80B58AB002AFF860B96042
:10C6D0003B601346FB8000237B61FB6893F842308C
:10C6E000DBB2202B40F08180BB68002B02D0FB889E
:10C6F000002B01D1012379E0FB6800225A64FB681A
:10C70000222283F84220FB6800221A63FDF750FCC6
:10C710007861FB68FA889A85FB68FA88DA85FB6895
:10C720009B68B3F5805F08D1FB681B69002B04D1BF
:10C730000023FB61BB68BB6103E0BB68FB610023B6
:10C74000BB6147E03B6800937B6900222021F868C9
:10C7500000F050F80346002B05D0FB68202283F838
:10C760004220032342E0FB69002B0CD1FB681B68CD
:10C770005B689BB2C3F308039AB2BB691A80BB69BA
:10C780000233BB611FE0FB689B68B3F5805F07D095
:10C79000FB689B68002B0AD1FB681B69002B06D144
:10C7A000FB681B685B68DAB2FB691A7008E0FB681B
:10C7B0001B685B68DBB203F07F03DAB2FB691A70B7
:10C7C000FB690133FB61FB68DB8D9BB2013B9AB2D5
:10C7D000FB68DA85FB68DB8D9BB2002BB2D1FB686E
:10C7E000202283F84220002300E00223184620374D
:10C7F000BD4680BD80B586B000AFF860B9603B60D3
:10C800001346FB713BE03B6AB3F1FF3F37D0FDF7C6
:10C81000CFFB02463B68D31A3A6A9A4202D33B6A7C
:10C82000002B01D103233AE0FB681B68DB6803F0AF
:10C830000403002B23D0BB68802B20D0BB68402B87
:10C840001DD0FB681B681B6803F00803082B16D17A
:10C8500000237B61FB681B681B687B61FB681B68AE
:10C860005B687B617B69F86800F01DF8FB68082253
:10C870005A64FB68002283F8402001230FE0FB6824
:10C880001B681A68BB681340BA689A420CBF012340
:10C890000023DBB21A46FB799A42B4D00023184633
:10C8A0001837BD4680BD80B495B000AF78607B6816
:10C8B0001B680C337B637B6B53E8003F3B633B6B34
:10C8C00023F49073FB647B681B680C33FA6C3A6446
:10C8D000FB63F96B3A6C41E80023BB63BB6B002B35
:10C8E000E5D17B681B6814333B623B6A53E8003F29
:10C8F000FB61FB6923F00103BB647B681B68143395
:10C90000BA6CFA62BB62B96AFA6A41E800237B62D8
:10C910007B6A002BE5D17B681B6B012B19D17B68EF
:10C920001B680C33FB60FB6853E8003FBB60BB68CF
:10C9300023F010037B647B681B680C337A6CBA614C
:10C940007B617969BA6941E800233B613B69002B4F
:10C95000E5D17B68202283F842207B6800221A639D
:10C9600000BF5437BD465DF8047B70472DE9B04FDA
:10C97000C0B000AFC7F8F400D7F8F4301B681B69EB
:10C9800023F44050D7F8F430D968D7F8F4301A6857
:10C9900040EA01031361D7F8F4309A68D7F8F4300D
:10C9A0001B691A43D7F8F4305B691A43D7F8F4309F
:10C9B000DB691343C7F8F830D7F8F4301B68DB683D
:10C9C00023F4164121F00C01D7F8F4301A68D7F897
:10C9D000F8300B43D360D7F8F4301B685B6923F45D
:10C9E0004070D7F8F4309969D7F8F4301A6840EA03
:10C9F00001035361D7F8F4301A688F4B9A4205D07F
:10CA0000D7F8F4301A688D4B9A4204D1FEF782FDB4
:10CA1000C7F8FC0003E0FEF769FDC7F8FC00D7F893
:10CA2000F430DB69B3F5004F40F00C81D7F8FC30EF
:10CA30000022C7F8E830C7F8EC20D7E93A4522468B
:10CA40002B469118B9655B41FB65D7E91623214652
:10CA500012EB0108294643EB01094FF000024FF0A9
:10CA600000034FEAC90343EA58734FEAC8029046ED
:10CA70009946234618EB0303C7F8E0302B4649EBF1
:10CA80000303C7F8E430D7F8F4305B680022C7F836
:10CA9000D830C7F8DC20D7E936120B46DB183B65E7
:10CAA000134642EB03037B65D7E91423D7E938012A
:10CAB000FBF784FF02460B46614BA3FB02235B0995
:10CAC0001C01D7F8FC300022C7F8D030C7F8D420BA
:10CAD000D7E9348942464B469118B9645B41FB64FF
:10CAE000D7E91223414612EB010A494643EB010BF9
:10CAF0004FF000024FF000034FEACB0343EA5A73B2
:10CB00004FEACA0292469B4643461AEB0303C7F814
:10CB1000C8304B464BEB0303C7F8CC30D7F8F430A2
:10CB20005B680022C7F8C030C7F8C420D7E93012CC
:10CB30000B46DB183B64134642EB03037B64D7E9E7
:10CB40001023D7E93201FBF739FF02460B461146A5
:10CB50003B4BA3FB01235B09642202FB03F3CB1ACB
:10CB6000DB0003F13202364BA3FB02235B095B00BF
:10CB700003F4F8731C44D7F8FC300022C7F8B8302F
:10CB8000C7F8BC20D7E92E8942464B469118B963B5
:10CB90005B41FB63D7E90E2341465118396349468F
:10CBA0004B417B634FF000024FF00003D7E90CAB21
:10CBB0005946CB00514643EA51735146CA001046CC
:10CBC0001946034642469B18C7F8B0304B460A4602
:10CBD00042EB0303C7F8B430D7F8F4305B680022A7
:10CBE000C7F8A830C7F8AC20D7E92A120B46DB18E3
:10CBF000BB62134642EB0303FB62D7E90A23D7E982
:10CC00002C01FBF7DBFE02460B460D4BA3FB021388
:10CC10005B09642101FB03F3D31ADB003233084ABA
:10CC2000A2FB03235B0903F00702D7F8F4301B686B
:10CC300022449A6006E100BF001001400014014048
:10CC40001F85EB51D7F8FC300022C7F8A030C7F899
:10CC5000A420D7E9288942464B46911839625B41A6
:10CC60007B62D7E9082341465418494643EB010546
:10CC70004FF000024FF00003EB0043EA5473E20070
:10CC800014461D464346E318C7F898304B4645EB1B
:10CC90000303C7F89C30D7F8F4305B680022C7F86C
:10CCA0009030C7F894204FF000024FF00003D7E90E
:10CCB000244529468B00214643EA917321468A0088
:10CCC000D7E92601FBF77AFE02460B46604BA3FB31
:10CCD00002235B091C01D7F8FC300022C7F888301A
:10CCE000C7F88C20D7E9228942464B469118B96192
:10CCF0005B41FB61D7E9062341465118396149463A
:10CD00004B417B614FF000024FF00003D7E904ABC9
:10CD10005946CB00514643EA51735146CA0010466A
:10CD20001946034642469B18C7F880304B460A46D0
:10CD300042EB0303C7F88430D7F8F4305B68002275
:10CD4000BB67FA674FF000024FF00003D7E91E8976
:10CD500049468B00414643EA917341468A00D7E930
:10CD60002001FBF72BFE02460B461146384BA3FB76
:10CD700001235B09642202FB03F3CB1A1B0132334C
:10CD8000334AA2FB03235B0903F0F0031C44D7F8EA
:10CD9000FC3000223B677A67D7E91C8942464B4644
:10CDA0009118B9605B41FB60D7E9022341465118F5
:10CDB000396049464B417B604FF000024FF0000361
:10CDC000D7E900AB5946CB00514643EA517351466F
:10CDD000CA0010461946034642469B18BB664B469E
:10CDE0000A4642EB0303FB66D7F8F4305B68002287
:10CDF0003B667A664FF000024FF00003D7E91889CE
:10CE000049468B00414643EA917341468A00D7E97F
:10CE10001A01FBF7D3FD02460B460D4BA3FB021391
:10CE20005B09642101FB03F3D31A1B013233084A67
:10CE3000A2FB03235B0903F00F02D7F8F4301B6851
:10CE400022449A6000BF07F58077BD46BDE8B08FE9
:10CE50001F85EB5180B483B000AF03463960FB718E
:10CE600097F90730002B0ADB3B68DAB20C4997F9D7
:10CE700007301201D2B20B4483F800230AE03B686A
:10CE8000DAB20849FB7903F00F03043B1201D2B276
:10CE90000B441A7600BF0C37BD465DF8047B704723
:10CEA00000E100E000ED00E080B500AF054B1B683D
:10CEB00001F0FEFC0346012B01D002F0E5FA00BFB1
:10CEC00080BD00BF10E000E080B500AF00216FF032
:10CED0000400FFF7BFFF00BF80BD000080B483B037
:10CEE00000AFEFF305833B603B68002B03D06FF08E
:10CEF00005037B600CE00A4B1B68002B05D1084B37
:10CF000001221A6000237B6002E04FF0FF337B6058
:10CF10007B6818460C37BD465DF8047B704700BF40
:10CF20009802002080B582B000AFEFF305833B602C
:10CF30003B68002B03D06FF005037B6010E00B4BC8
:10CF40001B68012B09D1FFF7BFFF084B02221A60B3
:10CF500001F066F800237B6002E04FF0FF337B6056
:10CF60007B6818460837BD4680BD00BF9802002088
:10CF700080B58EB004AFF860B9607A6000233B6181
:10CF8000EFF305837B617B69002B7ED1FB68002B6F
:10CF90007BD080233B621823FB6100237B624FF030
:10CFA000FF33BB617B68002B45D07B681B68002B7F
:10CFB00002D07B681B687B627B689B69002B02D078
:10CFC0007B689B69FB61FB69002B08D0FB69382BF0
:10CFD00005D87B685B6803F00103002B01D00023B8
:10CFE00054E07B685B69002B03D07B685B699B081E
:10CFF0003B627B689B68002B0ED07B68DB685B2BF9
:10D000000AD97B681B69002B06D07B685B69002B03
:10D0100002D00123BB6110E07B689B68002B0CD120
:10D020007B68DB68002B08D17B681B69002B04D16F
:10D030000023BB6101E00023BB61BB69012B10D160
:10D040007B681B697A68926802920193FB6900937E
:10D05000BB683A6A796AF86800F00CFE03463B61E7
:10D0600013E0BB69002B10D13B6A9AB207F11003A1
:10D070000193FB690093BB68796AF86800F057FE7A
:10D080000346012B01D000233B613B69184628373A
:10D09000BD4680BD80B584B000AF7860EFF30583F6
:10D0A000BB60BB68002B03D06FF00503FB6007E09B
:10D0B0000023FB607B68002B02D0786800F07CFFC7
:10D0C000FB6818461037BD4680BD000080B485B0AF
:10D0D00000AFF860B9607A60FB68074A1A60BB6805
:10D0E000064A1A607B6880221A6000BF1437BD466A
:10D0F0005DF8047B704700BF9C020020F80200200E
:10D1000080B485B000AFF860B9607A60FB68074A08
:10D110001A60BB68064A1A607B684FF480721A6016
:10D1200000BF1437BD465DF8047B7047F80400204B
:10D130005405002080B483B000AF78607B6803F1B1
:10D1400008027B685A607B684FF0FF329A607B6808
:10D1500003F108027B68DA607B6803F108027B68F0
:10D160001A617B6800221A6000BF0C37BD465DF86B
:10D17000047B704780B483B000AF78607B68002286
:10D180001A6100BF0C37BD465DF8047B704780B460
:10D1900085B000AF786039607B685B68FB603B6896
:10D1A000FA685A60FB689A683B689A60FB689B68FB
:10D1B0003A685A60FB683A689A603B687A681A6114
:10D1C0007B681B685A1C7B681A6000BF1437BD4619
:10D1D0005DF8047B704780B485B000AF786039603B
:10D1E0003B681B68BB60BB68B3F1FF3F03D17B6842
:10D1F0001B69FB600CE07B680833FB6002E0FB68A6
:10D200005B68FB60FB685B681B68BA689A42F6D291
:10D21000FB685A683B685A603B685B683A689A608A
:10D220003B68FA689A60FB683A685A603B687A68BB
:10D230001A617B681B685A1C7B681A6000BF143730
:10D24000BD465DF8047B704780B485B000AF786060
:10D250007B681B69FB607B685B687A6892689A6090
:10D260007B689B687A6852685A60FB685B687A687A
:10D270009A4203D17B689A68FB685A607B680022F7
:10D280001A61FB681B685A1EFB681A60FB681B6802
:10D2900018461437BD465DF8047B704780B584B0EE
:10D2A00000AF786039607B68FB60FB68002B0AD1B7
:10D2B0004FF0500383F31188BFF36F8FBFF34F8F8D
:10D2C000BB6000BFFEE702F04DF8FB681A68FB6820
:10D2D000DB6BF968096C01FB03F31A44FB689A6085
:10D2E000FB6800229A63FB681A68FB685A60FB6857
:10D2F0001A68FB68DB6B013BF968096C01FB03F3FF
:10D300001A44FB68DA60FB68FF2283F84420FB685C
:10D31000FF2283F845203B68002B14D1FB681B6972
:10D32000002B1AD0FB681033184601F003F90346AE
:10D33000002B12D00C4B4FF080521A60BFF34F8F6E
:10D34000BFF36F8F09E0FB6810331846FFF7F2FE5A
:10D35000FB6824331846FFF7EDFE02F033F8012393
:10D3600018461037BD4680BD04ED00E080B58EB094
:10D3700002AFF860B9607A603B60FB68002B0AD1AD
:10D380004FF0500383F31188BFF36F8FBFF34F8FBC
:10D39000BB6200BFFEE73B68002B0AD14FF0500391
:10D3A00083F31188BFF36F8FBFF34F8F7B6200BF92
:10D3B000FEE77B68002B02D0BB68002B01D0012365
:10D3C00000E00023002B0AD14FF0500383F31188B3
:10D3D000BFF36F8FBFF34F8F3B6200BFFEE77B68E9
:10D3E000002B02D1BB68002B01D1012300E00023F8
:10D3F000002B0AD14FF0500383F31188BFF36F8FD6
:10D40000BFF34F8FFB6100BFFEE750237B617B6959
:10D41000502B0AD04FF0500383F31188BFF36F8F66
:10D42000BFF34F8FBB6100BFFEE77B693B68FB62C8
:10D43000FB6A002B0DD0FB6A012283F8462097F887
:10D440003820FB6A009313467A68B968F86800F0E0
:10D4500005F8FB6A18463037BD4680BD80B584B0FC
:10D4600000AFF860B9607A60FB70BB68002B03D135
:10D47000BB69BA691A6002E0BB697A681A60BB6965
:10D48000FA68DA63BB69BA681A640121B869FFF700
:10D4900005FFBB69FA7883F84C2000BF1037BD4602
:10D4A00080BD000080B58EB000AFF860B9607A60D2
:10D4B0003B6000237B63FB683B633B6B002B0AD123
:10D4C0004FF0500383F31188BFF36F8FBFF34F8F7B
:10D4D000BB6200BFFEE7BB68002B03D13B6B1B6C3C
:10D4E000002B01D1012300E00023002B0AD14FF0D3
:10D4F000500383F31188BFF36F8FBFF34F8F7B62AD
:10D5000000BFFEE73B68022B03D13B6BDB6B012BBB
:10D5100001D1012300E00023002B0AD14FF050037A
:10D5200083F31188BFF36F8FBFF34F8F3B6200BF50
:10D53000FEE701F0BDF90346002B02D17B68002B0A
:10D5400001D1012300E00023002B0AD14FF050034A
:10D5500083F31188BFF36F8FBFF34F8FFB6100BF61
:10D56000FEE701F0FFFE3B6B9A6B3B6BDB6B9A4275
:10D5700002D33B68022B29D13A68B968386B00F0B6
:10D580000BFAF8623B6B5B6A002B10D03B6B2433C9
:10D59000184600F0CFFF0346002B13D03F4B4FF04F
:10D5A00080521A60BFF34F8FBFF36F8F0AE0FB6AA0
:10D5B000002B07D0394B4FF080521A60BFF34F8FCA
:10D5C000BFF36F8F01F0FEFE012363E07B68002B49
:10D5D00003D101F0F7FE00235CE07B6B002B06D14A
:10D5E00007F11403184601F009F801237B6301F0E9
:10D5F000E9FE00F07BFD01F0B5FE3B6B93F8443093
:10D600005BB2B3F1FF3F03D13B6B002283F84420B0
:10D610003B6B93F845305BB2B3F1FF3F03D13B6BFB
:10D62000002283F8452001F0CDFE3A1D07F11403D6
:10D630001146184600F0F8FF0346002B24D1386B42
:10D6400000F0A2FA0346002B18D03B6B10337A6827
:10D650001146184600F01EFF386B00F02DFA00F05E
:10D6600053FD0346002B7FF47CAF0C4B4FF08052F0
:10D670001A60BFF34F8FBFF36F8F72E7386B00F004
:10D680001BFA00F041FD6CE7386B00F015FA00F072
:10D690003BFD002318463837BD4680BD04ED00E051
:10D6A00080B590B000AFF860B9607A603B60FB680D
:10D6B000BB63BB6B002B0AD14FF0500383F311887F
:10D6C000BFF36F8FBFF34F8FBB6200BFFEE7BB6836
:10D6D000002B03D1BB6B1B6C002B01D1012300E09D
:10D6E0000023002B0AD14FF0500383F31188BFF3BE
:10D6F0006F8FBFF34F8F7B6200BFFEE73B68022B4B
:10D7000003D1BB6BDB6B012B01D1012300E00023B4
:10D71000002B0AD14FF0500383F31188BFF36F8FB2
:10D72000BFF34F8F3B6200BFFEE701F0FDFEEFF35A
:10D7300011824FF0500383F31188BFF36F8FBFF353
:10D740004F8FFA61BB61FB697B63BB6B9A6BBB6BF1
:10D75000DB6B9A4202D33B68022B2FD1BB6B93F851
:10D76000453087F83330BB6B9B6BFB623A68B96816
:10D77000B86B00F011F997F93330B3F1FF3F12D1D4
:10D78000BB6B5B6A002B16D0BB6B2433184600F0D2
:10D79000D1FE0346002B0ED07B68002B0BD07B689C
:10D7A00001221A6007E097F833300133DBB25AB236
:10D7B000BB6B83F845200123FB6301E00023FB637F
:10D7C0007B6B7B617B6983F3118800BFFB6B184621
:10D7D0004037BD4680BD000080B58CB000AFF8601A
:10D7E000B9607A600023FB62FB68BB62BB6A002BF6
:10D7F0000AD14FF0500383F31188BFF36F8FBFF34B
:10D800004F8F3B6200BFFEE7BB68002B03D1BB6AB2
:10D810001B6C002B01D1012300E00023002B0AD157
:10D820004FF0500383F31188BFF36F8FBFF34F8F17
:10D83000FB6100BFFEE701F03BF80346002B02D17D
:10D840007B68002B01D1012300E00023002B0AD1CB
:10D850004FF0500383F31188BFF36F8FBFF34F8FE7
:10D86000BB6100BFFEE701F07DFDBB6A9B6B7B6285
:10D870007B6A002B1FD0B968B86A00F0F7F87B6AA2
:10D880005A1EBB6A9A63BB6A1B69002B0FD0BB6A26
:10D890001033184600F04EFE0346002B07D03D4BD8
:10D8A0004FF080521A60BFF34F8FBFF36F8F01F0BC
:10D8B00089FD012369E07B68002B03D101F082FD23
:10D8C000002362E0FB6A002B06D107F11003184623
:10D8D00000F094FE0123FB6201F074FD00F006FCF1
:10D8E00001F040FDBB6A93F844305BB2B3F1FF3FF7
:10D8F00003D1BB6A002283F84420BB6A93F8453009
:10D900005BB2B3F1FF3F03D1BB6A002283F845202D
:10D9100001F058FD3A1D07F110031146184600F0BA
:10D9200083FE0346002B23D1B86A00F017F90346A3
:10D93000002B17D0BB6A24337A681146184600F0D2
:10D94000A9FDB86A00F0B8F800F0DEFB0346002B32
:10D9500089D1104B4FF080521A60BFF34F8FBFF345
:10D960006F8F80E7B86A00F0A7F800F0CDFB7AE788
:10D97000B86A00F0A1F800F0C7FBB86A00F0EEF852
:10D980000346002B3FF46FAF002318463037BD46E7
:10D9900080BD00BF04ED00E080B586B000AFF86048
:10D9A000B9607A6000237B61FB689B6B3B61FB681D
:10D9B0001B6C002B0DD1FB681B68002B4DD1FB6845
:10D9C0009B68184600F092FF7861FB6800229A601D
:10D9D00043E07B68002B19D1FB685868FB681B6C1F
:10D9E0001A46B96801F0F6FFFB685A68FB681B6CC1
:10D9F0001A44FB685A60FB685A68FB689B689A4245
:10DA00002BD3FB681A68FB685A6026E0FB68D8686D
:10DA1000FB681B6C1A46B96801F0DCFFFB68DA682A
:10DA2000FB681B6C5B421A44FB68DA60FB68DA68CF
:10DA3000FB681B689A4207D2FB689A68FB681B6CFC
:10DA40005B421A44FB68DA607B68022B05D13B69B4
:10DA5000002B02D03B69013B3B613B695A1CFB68D0
:10DA60009A637B6918461837BD4680BD80B582B081
:10DA700000AF786039607B681B6C002B18D07B6826
:10DA8000DA687B681B6C1A447B68DA607B68DA684A
:10DA90007B689B689A4203D37B681A687B68DA606C
:10DAA0007B68D9687B681B6C1A46386801F092FF66
:10DAB00000BF0837BD4680BD80B584B000AF786038
:10DAC00001F050FC7B6893F84530FB7311E07B68F4
:10DAD0005B6A002B12D07B682433184600F02AFDC5
