:020000040800F2
:10000000000001201D170008991300089F13000825
:10001000A5130008AB130008B1130008000000008E
:10002000000000000000000000000000B7130008FE
:10003000C513000800000000D3130008E1130008F6
:100040006D1700086D1700086D1700086D17000880
:100050006D1700086D1700086D1700086D17000870
:100060006D1700086D1700086D1700086D17000860
:100070006D1700086D1700086D1700086D17000850
:100080006D1700086D1700086D17000800000000CC
:100090000000000000000000000000006D170008D4
:1000A0006D1700086D1700086D1700086D17000820
:1000B0006D170008ED1300086D1700086D17000894
:1000C0006D1700086D1700086D1700086D17000800
:1000D0006D1700086D1700086D170008000000007C
:1000E0006D1700086D1700086D170008000000006C
:1000F0000000000000000000000000006D17000874
:10010000000000006D1700086D1700086D1700084B
:1001100000000000000000000000000000000000DF
:100120006D1700086D1700086D1700086D1700089F
:100130006D17000800000000000000000000000033
:100140000000000000000000000000006D17000823
:100150006D1700086D1700086D1700086D1700086F
:100160006D1700086D170008000000000000000077
:10017000000000000000000000000000000000007F
:10018000000000006D1700080000000000000000E3
:040190006D170008DF
:1001A00010B5054C237833B9044B13B10448AFF3B1
:1001B00000800123237010BD6800002000000000B3
:1001C000E44C000808B5034B1BB103490348AFF3E7
:1001D000008008BD000000006C000020E44C000816
:1001E00001F0FF01102A2BDB10F0070F08D010F8E8
:1001F000013B013A8B422DD010F0070F42B3F6D1EC
:10020000F0B441EA012141EA014122F007047FF004
:1002100000070023F0E80256083C85EA010586EA5B
:10022000010685FA47F5A3FA87F586FA47F6A5FA97
:1002300087F68EB9EED1F0BC01F0FF0102F00702A3
:1002400032B110F8013B013A83EA010313B1F8D14E
:100250000020704701387047002D06BF354603382F
:10026000073815F0010F07D1013015F4807F02BF68
:10027000013015F4C03F0130F0BC0138704700BFB9
:1002800053B94AB9002908BF00281CBF4FF0FF31FD
:100290004FF0FF3000F070B9ADF1080C6DE904CEFD
:1002A00000F006F8DDF804E0DDE9022304B0704751
:1002B0002DE9F047089E0D4604460F46002B4AD113
:1002C0008A42944665D9B2FA82F343B102FA03FC3A
:1002D000C3F120029F4020FA02F217439C404FEAEC
:1002E0001C4E1FFA8CF5B7FBFEF1220C0EFB1177AA
:1002F00042EA074201FB05F090420AD91CEB0202D8
:1003000001F1FF3780F01C81904240F219810239DF
:100310006244121AA4B2B2FBFEF00EFB102244EAB1
:10032000024400FB05F5A5420AD91CEB040400F1C8
:10033000FF3280F00781A54240F204816444023814
:1003400040EA0140641B00211EB1DC400023C6E9E5
:100350000043BDE8F0878B4208D9002E00F0ED8005
:100360000021C6E900050846BDE8F087B3FA83F12D
:10037000002949D1AB4202D3824200F2F880841AAC
:1003800065EB030201201746002EE2D0C6E90047C4
:10039000DFE702B9FFDEB2FA82F3002B40F0908073
:1003A0008A1A4FEA1C471FFA8CFE0121B2FBF7F5AF
:1003B00007FB1520220C42EA00420EFB05F090429A
:1003C00008D91CEB020205F1FF3802D2904200F27C
:1003D000CB804546121AA4B2B2FBF7F007FB1022FD
:1003E00044EA02440EFB00FEA64508D91CEB0404B7
:1003F00000F1FF3202D2A64500F2BB801046A4EB0A
:100400000E0440EA05409FE7C1F120078B4022FA25
:1004100007FC4CEA030C05FA01F420FA07F3FD404F
:100420004FEA1C492343B5FBF9F81FFA8CFE09FB80
:1004300018551C0C44EA054408FB0EF5A54202FAC7
:1004400001F200FA01F00BD91CEB040408F1FF3AA9
:1004500080F08880A54240F28580A8F102086444BB
:10046000641B9DB2B4FBF9F309FB134445EA044451
:1004700003FB0EFEA64508D91CEB040403F1FF356F
:100480006CD2A6456AD9023B644443EA0843A3FB05
:100490000295A4EB0E04AC42C846AE4656D353D0E8
:1004A00056B1B0EB080264EB0E0404FA07F7CA4039
:1004B000CC401743C6E9007418460021BDE8F08718
:1004C000C3F1200102FA03FC20FA01F225FA01F13E
:1004D0009D402A434FEA1C471FFA8CFEB1FBF7F000
:1004E00007FB1015110C41EA054100FB0EF58D428A
:1004F00004FA03F408D91CEB010100F1FF382FD2F4
:100500008D422DD902386144491B92B2B1FBF7F5F7
:1005100007FB151142EA014205FB0EF1914208D991
:100520001CEB020205F1FF3816D2914214D9023DAC
:100530006244521A45EA004138E73146304608E73E
:100540003946E6E61046FBE64845A9D2B9EB020873
:1005500065EB0C0E013BA3E74546EAE72B4694E723
:100560004046D1E7D0467BE7023D624432E7084689
:100570000AE76444023842E7704700BF80B582B0A2
:1005800000AF0023FB710123BB7100237B71C822E4
:100590000021534803F022FF4FF47A73012250499F
:1005A000504803F076FB0346BB71BB79002B02D0A9
:1005B0000023FB718EE04C4802F0CAFE484B1B78CA
:1005C0007B717B799AB24FF47A734849454803F0BE
:1005D00060FB0346BB71BB79002B02D00023FB718B
:1005E00078E03F4B5B78103B112B6FD801A252F89B
:1005F00023F000BF3D060008490600085506000824
:10060000610600086D0600087906000885060008E6
:10061000910600089D060008A9060008CD060008FE
:10062000CD060008CD060008CD060008CD0600085E
:10063000CD060008B5060008C1060008284800F0ED
:1006400017F90123FB7145E0254800F05BF9012310
:10065000FB713FE0224800F093F90123FB7139E080
:100660001F4800F071FA0123FB7133E01C4800F0D1
:10067000F9F90123FB712DE0194800F019FB012362
:10068000FB7127E0164800F0C7FB0123FB7121E056
:10069000174800F037F80123FB711BE0154800F004
:1006A00031F80123FB7115E0134800F02BF801230A
:1006B000FB710FE0114800F025F80123FB7109E000
:1006C000074800F099FC0123FB7103E00C4800F09F
:1006D00019F800BFFB7918460837BD4680BD00BF3A
:1006E00084000020A40100205C010020850000207F
:1006F000FC4C0008484D0008844D0008B04D00082F
:10070000CC4D00080FB480B59AB000AF00237B60D9
:1007100007F1080360220021184603F05FFE07F18D
:1007200074033B603B1D3A68396F184603F04CFE7A
:10073000391D4FF0FF336422044803F018FA00BF5C
:100740006837BD46BDE8804004B07047E80100202E
:1007500080B582B000AF064B1B687B607B683B6056
:1007600002F076FC3B68984700BF0837BD4680BD65
:100770000480000880B588B000AFF860B9607A6086
:100780000023FB770023BB610023FB7500233B6143
:100790000023FB750FE0FB7DFA6813441B783B6177
:1007A00007F1100301221946104801F080F9B861E1
:1007B000FB7D0133FB75FB7DBA689A42EBD80B4B8E
:1007C0001B689A68094B1B6842F001029A60BA697B
:1007D0007B689A4202D10123FB7701E00023FB777B
:1007E000FB7F18462037BD4680BD00BF4C0100206E
:1007F00080B584B000AF0346FB710023BB81CD23DD
:100800003B73FB797B7307F10C014FF0FF3302223E
:10081000034803F0ACF900BF1037BD4680BD00BFF0
:10082000A401002080B582B000AFAB23FB71F91D9D
:100830004FF0FF330122034803F099F900BF083756
:10084000BD4680BDA401002080B582B000AF7860B5
:1008500039603B689AB24FF0FF337968034803F080
:1008600086F900BF0837BD4680BD00BFA401002047
:1008700080B586B000AF78601D4BFB600023FB8223
:1008800000233B611B48FFF73DFF7B681B789BB251
:100890000133FB82FB8A043B7A6813441B683B618B
:1008A000FB8A043B3A6919467868FFF763FF034601
:1008B000012B14D11048FFF725FF0420FFF798FF04
:1008C00007F10C0304211846FFF7BEFF7B7B194696
:1008D000BB7B1A46FB7B0948FFF714FF04E008487E
:1008E000FFF710FFFFF79EFF00BF1837BD4680BD22
:1008F00064010100FC4D0008284E0008444E000829
:10090000604E000880B584B000AF78600023FB81A2
:100910000023BB601648FFF7F5FE7B681B789BB28F
:100920000133FB81FB89043B7A6813441B68BB607D
:10093000FB89043BBA6819467868FFF71BFF03463A
:10094000012B0CD10B48FFF7DDFE0C20FFF750FF09
:100950000C210948FFF778FFFFF7FAFE04E007488B
:10096000FFF7D0FEFFF75EFF00BF1037BD4680BD2A
:100970007C4E0008284E000800000020604E000851
:1009800080B586B000AF78600023FB8200233B6116
:100990000023FB811A48FFF7B5FE7B681B789BB2EA
:1009A0000133FB82FB8A043B7A6813441B683B617A
:1009B000FB8A043B3A6919467868FFF7DBFE034679
:1009C000012B13D10F48FFF79DFE0F4B1B689BB205
:1009D000C3F30B039BB2FB810220FFF709FF07F172
:1009E0000E0302211846FFF72FFF04E00748FFF728
:1009F00089FEFFF717FF00BF1837BD4680BD00BF57
:100A0000B04E0008284E0008002004E0604E0008A8
:100A100080B485B000AF78600023FB737B68B3F1CE
:100A2000005F06D37B680D4A934202D80123FB7313
:100A30000CE07B68B3F1006F06D37B68084A9342F1
:100A400002D80123FB7301E00023FB73FB7B1846F4
:100A50001437BD465DF8047B704700BF00000120DD
:100A60000000040880B588B000AF78600023FB83E5
:100A70000023BB6100237B610023FB732648FFF743
:100A800041FE7B681B789BB20133FB83FB8B043BED
:100A90007A6813441B68BB61FB8B043BBA69194637
:100AA0007868FFF767FE0346012B2BD11B48FFF741
:100AB00029FE0120FFF79CFE7B68D3F802307B61A2
:100AC0007869FFF7A5FF0346FB73FB7B012B12D16F
:100AD0001348FFF717FE07F10F0301211846FFF730
:100AE000B3FE7B6901333B6139690E48FFF70AFEAB
:100AF0003B6998470BE007F10F0301211846FFF708
:100B0000A3FE04E00848FFF7FDFDFFF78BFE00BFE2
:100B10002037BD4680BD00BFDC4E0008284E0008CF
:100B2000044F0008284F0008604E000880B588B0C8
:100B300000AF3B1D184601F0C9FA7B69DBB21846CD
:100B40002037BD4680BD000080B586B000AF78601C
:100B50000023FB8200233B610023FB731848FFF74F
:100B6000D1FD7B681B789BB20133FB82FB8A043B7F
:100B70007A6813441B683B61FB8A043B3A69194657
:100B80007868FFF7F7FD0346012B10D10D48FFF7FA
:100B9000B9FD0120FFF72CFEFFF7C8FF0346FB73EA
:100BA00007F10F0301211846FFF74EFE04E0064847
:100BB000FFF7A8FDFFF736FE00BF1837BD4680BD22
:100BC0003C4F0008284E0008604E000880B58AB0EF
:100BD00000AF03460A46FB711346BB71002387F83A
:100BE0002730002387F82630012387F8253000239B
:100BF000FB60BB79062B03D9002387F827304CE034
:100C0000FB79052B02D9FB79FF2B43D1FB79FF2B15
:100C100005D101233B612448FFF774FD15E023480B
:100C2000FFF770FDFB79C3F1060387F82630BA7928
:100C300097F826309A4202D997F82630BB710023E4
:100C40003B61FB79BB61BB79FB6101237B610223C3
:100C50003B6200F0ABFF034687F8253007F10C023A
:100C600007F110031146184601F052F9034687F8C0
:100C70002530FB68B3F1FF3F03D1032387F827300A
:100C800002E0022387F8273000F0B2FF034687F81E
:100C9000253002E0022387F8273097F827301846DE
:100CA0002837BD4680BD00BF684F0008884F000848
:100CB00080B586B000AF78600023FB8200233B61E3
:100CC0000023FB732448FFF71DFD7B681B789BB254
:100CD0000133FB82FB8A043B7A6813441B683B6147
:100CE000FB8A043B3A6919467868FFF743FD0346DF
:100CF000012B28D11948FFF705FD0120FFF778FDEA
:100D00007B6802331A787B6803331B7819461046D8
:100D1000FFF75CFF0346FB73FB7B032B09D107F155
:100D20000F0301211846FFF78FFD0D48FFF7EAFC7E
:100D30000EE007F10F0301211846FFF785FD094872
:100D4000FFF7E0FC04E00848FFF7DCFCFFF76AFD72
:100D500000BF1837BD4680BDA44F0008284E0008CC
:100D6000D44F0008E84F0008604E0008B0B586B0C8
:100D700000AFF860B9601346FB800123FB750023C8
:100D8000BB750023BB8200F011FF0346FB75FB7DA2
:100D9000002B02D00023BB7523E00023BB821CE0A4
:100DA000BA8ABB68D118BB8AFA6813441B78DBB2D5
:100DB00000221C46154622462B46002000F0A2FECB
:100DC0000346FB75FB7D002B02D00023BB7508E0BA
:100DD0000123BB75BB8A0133BB82BA8AFB889A4266
:100DE000DED3BB7D012B0FD1FB7D002B0CD100F09E
:100DF000FFFE0346FB75FB7D002B02D00023BB7575
:100E000004E00123BB7501E00023BB75BB7D1846E0
:100E10001837BD46B0BD000080B586B000AF786021
:100E20000023FB8200233B610023FB600023FB7255
:100E30000023BB7200237B723148FFF763FC7B68A1
:100E40001B789BB20133FB82FB8A043B7A68134414
:100E50001B683B61FB8A043B3A6919467868FFF7D7
:100E600089FC0346012B42D12648FFF74BFC0120A9
:100E7000FFF7BEFC7B68D3F80230FB60F9682248BC
:100E8000FFF740FC7B689B79FB72F868FFF7C0FDB9
:100E90000346BB72BB7A012B20D17B680733FA7AF9
:100EA00092B2F9681846FFF761FF03467B727B7ABE
:100EB000012B09D107F1090301211846FFF7C4FCF2
:100EC0001248FFF71FFC17E01148FFF71BFC07F162
:100ED000090301211846FFF7B7FC0DE00023BB72A0
:100EE00007F10A0301211846FFF7AEFC04E00948A8
:100EF000FFF708FCFFF796FC00BF1837BD4680BD22
:100F000004500008284E00083850000850500008CF
:100F100064500008604E000880B58AB000AF786069
:100F2000012387F82630002387F8273000F070FE71
:100F3000034687F8263097F82630002B06D000238A
:100F400087F827302748FFF7DDFB44E02648FFF706
:100F5000D9FB0223BB6001237B617B68BB6107F186
:100F60000803184601F044F8034687F8263097F83E
:100F70002630002B0BD01D48FFF7C4FB00F064FEA9
:100F8000034687F82630002387F8273023E01848E7
:100F9000FFF7B8FB00F068FE034687F8263097F8A5
:100FA0002630002B03D0002387F8273013E000F011
:100FB0004BFE034687F8263097F82630002B03D0E7
:100FC000002387F8273006E0012387F82730796867
:100FD0000848FFF797FB97F8273018462837BD4693
:100FE00080BD00BF78500008B8500008F8500008D5
:100FF0001C5100084051000880B586B000AF7860F1
:101000000023BB8200233B610023FB730023FB759D
:101010002548FFF777FB7B681B789BB20133BB82C7
:10102000BB8A043B7A6813441B683B61BB8A043B60
:101030003A6919467868FFF79DFB0346012B29D1D1
:101040001A48FFF75FFB0120FFF7D2FB7B689B7814
:10105000FB75FB7D022B02D0FB7DCC2B02D1002344
:10106000FB7310E0FB7D002B02D1AA23FB7504E08B
:10107000FB7D012B01D15523FB75FB7D1846FFF746
:101080004BFF0346FB7307F10F0301211846FFF7DF
:10109000DBFB04E00648FFF735FBFFF7C3FB00BFAF
:1010A0001837BD4680BD00BF6C510008284E0008AF
:1010B000604E000880B500AF064B074A1A6005482D
:1010C00000F0D9FC0346002B01D000F037F900BF37
:1010D00080BD00BF4C0100200030024080B485B0CC
:1010E00000AF78607B681B680B4A93420DD10023E8
:1010F000FB600A4B1B6B094A43F480531363074B95
:101100001B6B03F48053FB60FB6800BF1437BD46C4
:101110005DF8047B704700BF003002400038024099
:1011200080B586B000AF3B1D00221A605A609A60FD
:10113000DA601A6100233B60104B1B6B0F4A43F0CF
:10114000010313630D4B1B6B03F001033B603B6812
:10115000002202210A4801F009FB02237B600123DF
:10116000BB600023FB6000233B613B1D1946044824
:1011700001F078F900BF1837BD4680BD0038024045
:101180000000024080B582B000AF00F0F1FA00F03C
:1011900045F8FFF7C5FF00F0F1F900F019FAFFF785
:1011A00089FF00F075F90023BB71174802F06EF853
:1011B0000023FB7101220221144801F0D7FA1448E0
:1011C000FFF7A0FAFFF7DAF90346BB71BB79012BF1
:1011D0000AD1FB79002B07D10B4802F057F8012305
:1011E000FB710C48FFF78EFA0B4B1B78DBB2012B1F
:1011F000E8D100220221054801F0B8FA024802F0C5
:10120000A7F8FFF7A5FADDE75C0100200000024027
:10121000A0510008B85100085401002080B594B0D6
:1012200000AF07F1200330220021184603F0D6F862
:1012300007F10C0300221A605A609A60DA601A61A2
:101240000023BB60284B1B6C274A43F08053136478
:10125000254B1B6C03F08053BB60BB6800237B6095
:10126000224B1B6823F44043204A43F4004313609D
:101270001E4B1B6803F440437B607B6802233B6288
:101280000123FB6210233B630223BB630023FB6348
:1012900008233B6454237B640223BB640423FB6464
:1012A00007F12003184601F07BFA0346002B01D01A
:1012B00000F044F80F23FB6002233B6100237B61B5
:1012C0004FF48053BB610023FB6107F10C03022143
:1012D000184601F0DDFC0346002B01D000F02EF88B
:1012E00000BF5037BD4680BD00380240007000404E
:1012F00080B582B000AF78600C4B1B8847F22F524C
:10130000934209D90A48FFF7FDF90A4B01221A70E6
:10131000094802F01DF805E0044B1B8801339AB21E
:10132000024B1A8000BF0837BD4680BD5601002021
:10133000CC510008540100205C01002080B400AFB3
:1013400072B600BFFEE7000080B483B000AF002398
:101350007B60104B5B6C0F4A43F4804353640D4B2E
:101360005B6C03F480437B607B6800233B60094B2C
:101370001B6C084A43F080531364064B1B6C03F04C
:1013800080533B603B6800BF0C37BD465DF8047B73
:10139000704700BF0038024080B400AFFEE780B461
:1013A00000AFFEE780B400AFFEE780B400AFFEE719
:1013B00080B400AFFEE780B400AF00BFBD465DF86B
:1013C000047B704780B400AF00BFBD465DF8047B6E
:1013D000704780B400AF00BFBD465DF8047B704726
:1013E00080B500AF00F016FA00BF80BD80B500AF39
:1013F000024801F0DCFF00BF80BD00BF5C0100209F
:1014000080B586B000AF7860144A154BD31A7B6163
:101410007B693B61134B1B68002B02D1114B124AB5
:101420001A60104B1A687B6813443A699A4207D2D3
:1014300002F0DCFF03460C221A604FF0FF3309E094
:10144000084B1B68FB60074B1A687B681344054A0E
:101450001360FB6818461837BD4680BD00000120A8
:1014600000040000580100209803002080B400AF61
:10147000064BD3F88830054A43F47003C2F888302D
:1014800000BFBD465DF8047B704700BF00ED00E083
:1014900080B586B000AF07F1080300221A605A60D9
:1014A0009A60DA603B4600221A605A601D4B1E4A61
:1014B0001A601C4B00225A601A4B00229A60194B8A
:1014C0004AF21042DA60174B00221A61154B0022D3
:1014D0009A61144801F08AFE0346002B01D0FFF701
:1014E0002DFF4FF48053BB6007F1080319460D48E8
:1014F00002F065F80346002B01D0FFF71FFF002321
:101500003B6000237B603B461946064802F060FAC8
:101510000346002B01D0FFF711FF00BF1837BD466F
:1015200080BD00BF5C0100200004004080B584B095
:1015300000AF78607B681B680E4A934215D1002388
:10154000FB600D4B1B6C0C4A43F0020313640A4B07
:101550001B6C03F00203FB60FB68002200211D20CE
:1015600000F053FA1D2000F06CFA00BF1037BD46A2
:1015700080BD00BF000400400038024080B500AFCD
:10158000114B124A1A60104B4FF4E1325A600E4B65
:1015900000229A600C4B0022DA600B4B00221A6189
:1015A000094B0C225A61084B00229A61064B00221B
:1015B000DA61054802F08EFA0346002B01D0FFF7EE
:1015C000BDFE00BF80BD00BFA4010020001001408F
:1015D00080B500AF114B124A1A60104B4FF4E13244
:1015E0005A600E4B00229A600C4B0022DA600B4BC3
:1015F00000221A61094B0C225A61084B00229A61A1
:10160000064B0022DA61054802F064FA0346002B1B
:1016100001D0FFF793FE00BF80BD00BFE8010020AE
:101620000044004080B58CB000AF786007F11C0327
:1016300000221A605A609A60DA601A617B681B683F
:10164000324A93422DD10023BB61314B5B6C304A4F
:1016500043F0100353642E4B5B6C03F01003BB612B
:10166000BB6900237B612A4B1B6B294A43F00103B2
:101670001363274B1B6B03F001037B617B694FF402
:10168000C063FB6102233B6200237B620323BB62D6
:101690000723FB6207F11C0319461E4800F0E2FE17
:1016A00030E07B681B681C4A93422BD100233B61CE
:1016B000174B1B6C164A43F400331364144B1B6C1A
:1016C00003F400333B613B690023FB60104B1B6B51
:1016D0000F4A43F0010313630D4B1B6B03F001032F
:1016E000FB60FB680C23FB6102233B6200237B62EF
:1016F0000323BB620723FB6207F11C03194605485D
:1017000000F0B0FE00BF3037BD4680BD0010014084
:10171000003802400000024000440040DFF834D0AE
:101720000D480E490E4A002302E0D458C450043339
:10173000C4188C42F9D30B4A0B4C002301E0136010
:101740000432A242FBD3FFF791FE02F055FEFFF7F1
:1017500019FD7047000001200000002068000020F3
:10176000445200086800002098030020FEE70000B3
:1017700080B500AF0E4B1B680D4A43F40073136035
:101780000B4B1B680A4A43F480631360084B1B68C9
:10179000074A43F480731360032000F02BF90F20F5
:1017A00000F008F8FFF7D0FD0023184680BD00BF09
:1017B000003C024080B582B000AF7860124B1A68DE
:1017C000124B1B7819464FF47A73B3FBF1F3B2FB5B
:1017D000F3F3184600F043F90346002B01D0012330
:1017E0000EE07B680F2B0AD8002279684FF0FF309B
:1017F00000F00BF9064A7B681360002300E0012328
:1018000018460837BD4680BD0C000020140000209B
:101810001000002080B400AF064B1B781A46064B20
:101820001B681344044A136000BFBD465DF8047B87
:10183000704700BF140000202C02002080B400AFCD
:10184000034B1B681846BD465DF8047B704700BF1C
:101850002C02002080B485B000AF78607B6803F074
:101860000703FB600C4BDB68BB60BA684FF6FF03F5
:101870001340BB60FB681A02BB68134343F0BF63AD
:1018800043F40033BB60044ABB68D36000BF143725
:10189000BD465DF8047B704700ED00E080B400AF0A
:1018A000044BDB681B0A03F007031846BD465DF8CE
:1018B000047B704700ED00E080B483B000AF0346C6
:1018C000FB7197F90730002B0BDBFB7903F01F024C
:1018D000074997F907305B09012000FA02F241F845
:1018E000232000BF0C37BD465DF8047B704700BF66
:1018F00000E100E080B483B000AF03463960FB71C3
:1019000097F90730002B0ADB3B68DAB20C4997F9EC
:1019100007301201D2B20B4483F800230AE03B687F
:10192000DAB20849FB7903F00F03043B1201D2B28B
:101930000B441A7600BF0C37BD465DF8047B704738
:1019400000E100E000ED00E080B489B000AFF86095
:10195000B9607A60FB6803F00703FB61FB69C3F1C0
:101960000703042B28BF0423BB61FB690433062B48
:1019700002D9FB69033B00E000237B614FF0FF329B
:10198000BB6902FA03F3DA43BB681A407B699A40E9
:101990004FF0FF317B6901FA03F3D9437B680B40B9
:1019A000134318462437BD465DF8047B704700009A
:1019B00080B582B000AF78607B68013BB3F1807F77
:1019C00001D301230FE00A4A7B68013B53600F21DA
:1019D0004FF0FF30FFF78EFF054B00229A60044B5B
:1019E00007221A60002318460837BD4680BD00BF95
:1019F00010E000E080B582B000AF78607868FFF753
:101A000029FF00BF0837BD4680BD80B586B000AF56
:101A10000346B9607A60FB7300237B61FFF73EFFEA
:101A200078617A68B9687869FFF78EFF024697F99E
:101A30000F3011461846FFF75DFF00BF1837BD464F
:101A400080BD80B582B000AF0346FB7197F90730C7
:101A50001846FFF731FF00BF0837BD4680BD80B58F
:101A600082B000AF78607868FFF7A2FF034618469F
:101A70000837BD4680BD80B582B000AF78607B6816
:101A8000002B01D101230EE07B685B79DBB2002BD8
:101A900005D17B6800221A717868FFF71FFB7B680D
:101AA00001225A71002318460837BD4680BD80B414
:101AB00087B000AFF860B9607A6000233B61FB68D3
:101AC00002225A7100237B610AE07B699B00BA689D
:101AD0001A44FB681B6812681A607B6901337B61DA
:101AE0007A697B689A42F0D3FB681B681B683B618C
:101AF000FB6801225A713B6918461C37BD465DF8E8
:101B0000047B704780B586B000AFF860B960C7E964
:101B100000230123FB75234B1B7E012B01D10223E4
:101B20003BE0204B01221A764CF2503000F0B0F826
:101B30000346FB75FB7D002B2BD1FB68002B05D1E9
:101B40003B781946B86800F05BF916E0FB68012B9A
:101B500005D13B881946B86800F02EF90DE0FB6806
:101B6000022B05D13B681946B86800F003F904E080
:101B7000D7E90023B86800F0CBF84CF2503000F001
:101B800087F80346FB75084B1B69074A23F00103DE
:101B90001361044B00221A76FB7D18461837BD46A8
:101BA00080BD00BF30020020003C024080B483B002
:101BB00000AF0023FB710B4B1B69002B0BDA094BA9
:101BC000094A5A60074B094A5A60064B1B69002BA9
:101BD00001DA0123FB71FB7918460C37BD465DF82D
:101BE000047B7047003C024023016745AB89EFCD81
:101BF00080B400AF054B1B69044A43F000431361F6
:101C000000231846BD465DF8047B7047003C024047
:101C100080B400AF094B5B6903F00103002B07D0D0
:101C2000064B074A9A60054B064A9A60002300E07B
:101C300001231846BD465DF8047B7047003C024016
:101C40003B2A19087F6E5D4C80B400AF054B5B6981
:101C5000044A43F00103536100231846BD465DF872
:101C6000047B7047003C024080B500AF074B1B78F7
:101C7000DBB2064A43F00203DBB213704CF2503081
:101C800000F006F80346184680BD00BF143C024031
:101C900080B584B000AF78600023FB601A4B00224F
:101CA000DA61FFF7CBFDF86010E07B68B3F1FF3F2E
:101CB0000CD07B68002B07D0FFF7C0FD0246FB6805
:101CC000D31A7A689A4201D2032319E00F4BDB68DA
:101CD00003F48033002BE8D10C4BDB6803F00103E5
:101CE000002B02D0094B0122DA60084BDB6803F4B9
:101CF000F973002B03D000F0A5F8012300E00023C6
:101D000018461037BD4680BD30020020003C02401E
:101D100080B485B000AFF860C7E90023144B1B699D
:101D2000134A23F440731361114B1B69104A43F4A7
:101D3000407313610E4B1B690D4A43F0010313619D
:101D4000FB683A681A60BFF36F8F00BFD7E90001E4
:101D50004FF000024FF000030A000023F96804313D
:101D600013460B6000BF1437BD465DF8047B704717
:101D7000003C024080B483B000AF786039600D4B06
:101D80001B690C4A23F4407313610A4B1B69094A0F
:101D900043F400731361074B1B69064A43F00103C8
:101DA00013617B683A681A6000BF0C37BD465DF866
:101DB000047B7047003C024080B483B000AF786081
:101DC0000B467B800D4B1B690C4A23F44073136157
:101DD0000A4B1B69094A43F480731361074B1B6963
:101DE000064A43F0010313617B687A881A8000BFBA
:101DF0000C37BD465DF8047B704700BF003C0240D5
:101E000080B483B000AF78600B46FB700C4B1B694D
:101E10000B4A23F440731361094B094A1B69136190
:101E2000074B1B69064A43F0010313617B68FA788C
:101E30001A7000BF0C37BD465DF8047B704700BFC9
:101E4000003C024080B400AF2F4BDB6803F010036E
:101E5000002B08D02D4BDB6943F010032B4AD361D4
:101E6000294B1022DA60284BDB6803F02003002B9B
:101E700008D0264BDB6943F00803244AD361224B88
:101E80002022DA60204BDB6803F04003002B08D0EF
:101E90001E4BDB6943F004031C4AD3611A4B4022FA
:101EA000DA60194BDB6803F08003002B08D0174B76
:101EB000DB6943F00203154AD361134B8022DA60D9
:101EC000114BDB6803F48073002B09D00F4BDB69E7
:101ED00043F001030D4AD3610B4B4FF48072DA607B
:101EE000094BDB6803F00203002B08D0074BDB69CA
:101EF00043F02003054AD361034B0222DA6000BF9E
:101F0000BD465DF8047B7047003C02403002002073
:101F100080B584B000AF786039600123FB73002383
:101F2000BB60314B1B7E012B01D1022358E02E4BAD
:101F300001221A764CF25030FFF7AAFE0346FB73DB
:101F4000FB7B002B48D13B684FF0FF321A607B6867
:101F50001B68012B15D17B681B69DAB27B685B6853
:101F60001946104600F0D6F84CF25030FFF790FEBC
:101F70000346FB731D4B1B691C4A23F004031361CA
:101F800028E07B689B68BB601CE07B681B69DBB258
:101F90001946B86800F0E2F84CF25030FFF778FECE
:101FA0000346FB73114B1B69104A23F0FA031361BC
:101FB000FB7B002B03D03B68BA681A600AE0BB6861
:101FC0000133BB607B68DA687B689B681344BA683E
:101FD0009A42DAD300F000FA034B00221A76FB7B18
:101FE00018461037BD4680BD30020020003C02403C
:101FF00080B584B000AF78600123FB73324B1B7E49
:10200000012B01D102235BE02F4B01221A767B6862
:102010001B6803F00103002B18D07B685B68012B61
:102020000AD17B689A687B68DB681946104600F025
:10203000DDF80346FB7309E07B689A687B68DB6820
:102040001946104600F0F4F80346FB737B681B68E2
:1020500003F00203002B07D07B681B69DBB2184634
:1020600000F006F90346FB737B681B6803F004036A
:10207000002B13D07B681B7E03F02003D8B27B6853
:102080001B7E03F04003D9B27B681B7E23F07F03E5
:10209000DBB21A4600F006F90346FB737B681B6847
:1020A00003F00803002B07D07B685B69DBB218469E
:1020B00000F028F90346FB73034B00221A76FB7BE2
:1020C00018461037BD4680BD3002002080B582B072
:1020D00000AF78607B680F221A6000F041F9034678
:1020E0001A467B689A6000F047F903461A467B68F7
:1020F0001A6100F025F903461A467B681A7600F04B
:102100005BF903461A467B685A6100BF0837BD4633
:1021100080BD000080B483B000AF03463960FB711E
:102120000D4B1B690C4A23F4407313610A4B1B6966
:10213000094A43F004031361074B1A69FB791B0238
:102140001343054A43F48033136100BF0C37BD4687
:102150005DF8047B704700BF003C024080B485B04E
:1021600000AF78600B46FB700023FB60FB78002B10
:1021700002D10023FB6010E0FB78012B03D14FF468
:102180008073FB6009E0FB78022B03D14FF40073EE
:10219000FB6002E04FF44073FB60134B1B69124A73
:1021A00023F440731361104B1A690F49FB68134302
:1021B0000B610D4B1B690C4A23F0F80313610A4BAA
:1021C0001A697B68DB001343074A43F0020313617B
:1021D000054B1B69044A43F48033136100BF143775
:1021E000BD465DF8047B7047003C024080B584B07A
:1021F00000AF786039600023FB734CF25030FFF77A
:1022000047FD0346FB73FB7B002B0AD1074B1B8862
:102210009AB27B689BB2DB439BB2044913409BB2EA
:102220000B80FB7B18461037BD4680BD163C024034
:1022300080B584B000AF786039600023FB734CF246
:102240005030FFF725FD0346FB73FB7B002B08D1C5
:10225000064B1B889AB27B689BB2044913439BB21E
:102260000B80FB7B18461037BD4680BD163C0240F4
:1022700080B584B000AF0346FB710023FB734CF2C2
:102280005030FFF705FD0346FB73FB7B002B02D1AB
:10229000034AFB791370FB7B18461037BD4680BD9F
:1022A000153C024080B584B000AF0346FB710B467D
:1022B000BB7113467B71FF23FB730023BB734CF28E
:1022C0005030FFF7E5FC0346BB73BB7B002B11D1FD
:1022D0000B4B1B78DBB203F01F03FB73BA79FB7B5C
:1022E0001343DAB27B791343DAB20549FB7913431E
:1022F000DBB20B70BB7B18461037BD4680BD00BFFC
:10230000143C024080B483B000AF0346FB710B4B1A
:102310001B78DBB2094A23F00C03DBB21370074BC6
:102320001B78DAB20549FB791343DBB20B7000234B
:1023300018460C37BD465DF8047B7047143C0240DC
:1023400080B400AF054B5B69DBB223F01F03DBB247
:102350001846BD465DF8047B704700BF003C024054
:1023600080B400AF034B1B889BB21846BD465DF896
:10237000047B7047163C024080B483B000AFAA23B0
:10238000FB710C4B1B78DBB2CC2B02D1CC23FB7145
:1023900009E0084B1B78DBB2AA2B02D1AA23FB7100
:1023A00001E05523FB71FB7918460C37BD465DF8FB
:1023B000047B7047153C024080B400AF054B1B788E
:1023C000DBB203F00C03DBB21846BD465DF8047BBC
:1023D000704700BF143C024080B400AF204B1B6824
:1023E00003F40073002B17D01D4B1B681C4A23F409
:1023F000007313601A4B1B68194A43F4006313609F
:10240000174B1B68164A23F400631360144B1B68B8
:10241000134A43F400731360114B1B6803F4806389
:10242000002B17D00E4B1B680D4A23F480631360FA
:102430000B4B1B680A4A43F480531360084B1B681C
:10244000074A23F480531360054B1B68044A43F486
:102450008063136000BFBD465DF8047B704700BF1A
:10246000003C024080B489B000AF7860396000233E
:102470007B6100233B610023BB610023FB6159E1C9
:102480000122FB6902FA03F37B613B681B687A69EE
:1024900013403B613A697B699A4240F048813B684E
:1024A0005B6803F00303012B05D03B685B6803F016
:1024B0000303022B30D17B689B68BB61FB695B0027
:1024C000032202FA03F3DB43BA691340BB613B68A2
:1024D000DA68FB695B0002FA03F3BA691343BB6174
:1024E0007B68BA699A607B685B68BB610122FB69A3
:1024F00002FA03F3DB43BA691340BB613B685B68D4
:102500001B0903F00102FB6902FA03F3BA691343E2
:10251000BB617B68BA695A603B685B6803F0030380
:10252000032B17D07B68DB68BB61FB695B00032270
:1025300002FA03F3DB43BA691340BB613B689A6854
:10254000FB695B0002FA03F3BA691343BB617B6862
:10255000BA69DA603B685B6803F00303022B23D19E
:10256000FB69DA087B68083253F82230BB61FB69EB
:1025700003F007039B000F2202FA03F3DB43BA695F
:102580001340BB613B681A69FB6903F007039B00BA
:1025900002FA03F3BA691343BB61FB69DA087B688B
:1025A0000832B96943F822107B681B68BB61FB697C
:1025B0005B00032202FA03F3DB43BA691340BB61F9
:1025C0003B685B6803F00302FB695B0002FA03F3FC
:1025D000BA691343BB617B68BA691A603B685B6880
:1025E00003F44033002B00F0A2800023FB60574B24
:1025F0005B6C564A43F480435364544B5B6C03F466
:102600008043FB60FB68524AFB699B08023352F827
:102610002330BB61FB6903F003039B000F2202FA26
:1026200003F3DB43BA691340BB617B68494A9342B9
:1026300019D07B68484A934213D07B68474A93423B
:102640000DD07B68464A934207D07B68454A934247
:1026500001D1042308E0072306E0032304E002235A
:1026600002E0012300E00023FA6902F00302920075
:102670009340BA691343BB613549FB699B08023338
:10268000BA6941F82320384B9B68BB613B69DB4347
:10269000BA691340BB613B685B6803F48013002B8D
:1026A00003D0BA693B691343BB612F4ABB6993608E
:1026B0002D4BDB68BB613B69DB43BA691340BB61EF
:1026C0003B685B6803F40013002B03D0BA693B69D5
:1026D0001343BB61244ABB69D360234B5B68BB6176
:1026E0003B69DB43BA691340BB613B685B6803F439
:1026F0000033002B03D0BA693B691343BB611A4A0C
:10270000BB695360184B1B68BB613B69DB43BA690B
:102710001340BB613B685B6803F48033002B03D03C
:10272000BA693B691343BB610F4ABB691360FB691C
:102730000133FB61FB690F2B7FF6A2AE00BF00BF28
:102740002437BD465DF8047B704700BF0038024067
:10275000003801400000024000040240000802402E
:10276000000C024000100240003C014080B483B0E5
:1027700000AF78600B467B8013467B707B78002B24
:1027800003D07A887B689A6103E07B881A047B68AF
:102790009A6100BF0C37BD465DF8047B70470000AE
:1027A00080B586B000AF78607B68002B01D1012333
:1027B00067E27B681B6803F00103002B75D0884B30
:1027C0009B6803F00C03042B0CD0854B9B6803F033
:1027D0000C03082B12D1824B5B6803F48003B3F522
:1027E000800F0BD17E4B1B6803F40033002B5BD0B2
:1027F0007B685B68002B57D1012342E27B685B68F2
:10280000B3F5803F06D1764B1B68754A43F480339D
:1028100013601DE07B685B68B3F5A02F0CD1704B93
:102820001B686F4A43F4802313606D4B1B686C4A2E
:1028300043F4803313600BE0694B1B68684A23F450
:1028400080331360664B1B68654A23F48023136052
:102850007B685B68002B13D0FEF7F0FF386108E05F
:10286000FEF7ECFF02463B69D31A642B01D9032320
:1028700007E25B4B1B6803F40033002BF0D014E03D
:10288000FEF7DCFF386108E0FEF7D8FF02463B693F
:10289000D31A642B01D90323F3E1514B1B6803F4D2
:1028A0000033002BF0D100E000BF7B681B6803F011
:1028B0000203002B63D04A4B9B6803F00C03002BF0
:1028C0000BD0474B9B6803F00C03082B1CD1444BE7
:1028D0005B6803F48003002B16D1414B1B6803F0A7
:1028E0000203002B05D07B68DB68012B01D001239C
:1028F000C7E13B4B1B6823F0F8027B681B69DB00D8
:10290000374913430B603AE07B68DB68002B20D02B
:10291000344B01221A60FEF791FF386108E0FEF7A0
:102920008DFF02463B69D31A022B01D90323A8E18C
:102930002B4B1B6803F00203002BF0D0284B1B68C5
:1029400023F0F8027B681B69DB00254913430B6009
:1029500015E0244B00221A60FEF770FF386108E092
:10296000FEF76CFF02463B69D31A022B01D9032301
:1029700087E11B4B1B6803F00203002BF0D17B683F
:102980001B6803F00803002B36D07B685B69002BC3
:1029900016D0154B01221A60FEF750FF386108E08F
:1029A000FEF74CFF02463B69D31A022B01D90323E1
:1029B00067E10B4B5B6F03F00203002BF0D01BE0D1
:1029C000094B00221A60FEF739FF38610EE0FEF76E
:1029D00035FF02463B69D31A022B07D9032350E186
:1029E0000038024000004742800E4742884B5B6F30
:1029F00003F00203002BEAD17B681B6803F0040399
:102A0000002B00F097800023FB75814B1B6C03F0BB
:102A10008053002B0FD10023BB607D4B1B6C7C4A85
:102A200043F0805313647A4B1B6C03F08053BB60FC
:102A3000BB680123FB75774B1B6803F48073002B85
:102A400018D1744B1B68734A43F480731360FEF70C
:102A5000F5FE386108E0FEF7F1FE02463B69D31A45
:102A6000022B01D903230CE16A4B1B6803F480732A
:102A7000002BF0D07B689B68012B06D1644B1B6F49
:102A8000634A43F0010313671CE07B689B68052BD6
:102A90000CD15F4B1B6F5E4A43F0040313675C4B22
:102AA0001B6F5B4A43F0010313670BE0584B1B6F2E
:102AB000574A23F001031367554B1B6F544A23F009
:102AC000040313677B689B68002B15D0FEF7B6FEE6
:102AD00038610AE0FEF7B2FE02463B69D31A41F2C2
:102AE0008832934201D90323CBE0494B1B6F03F09B
:102AF0000203002BEED014E0FEF7A0FE38610AE0DE
:102B0000FEF79CFE02463B69D31A41F2883293429B
:102B100001D90323B5E03E4B1B6F03F00203002BEA
:102B2000EED1FB7D012B05D1394B1B6C384A23F0CC
:102B3000805313647B689B69002B00F0A180344BA9
:102B40009B6803F00C03082B5CD07B689B69022B0D
:102B500041D1314B00221A60FEF770FE386108E067
:102B6000FEF76CFE02463B69D31A022B01D9032300
:102B700087E0274B1B6803F00073002BF0D17B68C4
:102B8000DA697B681B6A1A437B685B6A9B011A439C
:102B90007B689B6A5B08013B1B041A437B68DB6A0A
:102BA0001B061B4913434B601B4B01221A60FEF7A7
:102BB00045FE386108E0FEF741FE02463B69D31A44
:102BC000022B01D903235CE0114B1B6803F0007357
:102BD000002BF0D054E0104B00221A60FEF72EFEBE
:102BE000386108E0FEF72AFE02463B69D31A022B41
:102BF00001D9032345E0064B1B6803F00073002B4B
:102C0000F0D13DE07B689B69012B07D1012338E0BF
:102C10000038024000700040600047421B4B5B6878
:102C2000FB607B689B69012B28D0FB6803F4800262
:102C30007B68DB699A4221D1FB6803F03F027B6825
:102C40001B6A9A421AD1FA6847F6C07313407A6831
:102C5000526A9201934211D1FB6803F440327B68BF
:102C60009B6A5B08013B1B049A4207D1FB6803F097
:102C700070627B68DB6A1B069A4201D0012300E088
:102C8000002318461837BD4680BD00BF00380240FB
:102C900080B584B000AF786039607B68002B01D1CB
:102CA0000123CCE0684B1B6803F007033A689A42A3
:102CB0000CD9654B3A68D2B21A70634B1B6803F0AB
:102CC00007033A689A4201D00123B8E07B681B6889
:102CD00003F00203002B20D07B681B6803F0040381
:102CE000002B05D0594B9B68584A43F4E05393603E
:102CF0007B681B6803F00803002B05D0534B9B68CF
:102D0000524A43F460439360504B9B6823F0F002B7
:102D10007B689B684D4913438B607B681B6803F09D
:102D20000103002B44D07B685B68012B07D1474B24
:102D30001B6803F40033002B19D101237FE07B686B
:102D40005B68022B03D07B685B68032B07D13F4B8A
:102D50001B6803F00073002B09D101236FE03B4B8C
:102D60001B6803F00203002B01D1012367E0374BFE
:102D70009B6823F003027B685B68344913438B60D4
:102D8000FEF75CFDF8600AE0FEF758FD0246FB68BE
:102D9000D31A41F28832934201D903234FE02B4BDF
:102DA0009B6803F00C027B685B689B009A42EBD146
:102DB000254B1B6803F007033A689A420CD2224B5A
:102DC0003A68D2B21A70204B1B6803F007033A68C6
:102DD0009A4201D0012332E07B681B6803F00403B0
:102DE000002B08D0194B9B6823F4E0527B68DB680A
:102DF000164913438B607B681B6803F00803002BA4
:102E000009D0124B9B6823F460427B681B69DB008E
:102E10000E4913438B6000F021F802460B4B9B6870
:102E20001B0903F00F030A49CB5C22FA03F3094A9A
:102E30001360094B1B681846FEF7BCFC00231846BC
:102E40001037BD4680BD00BF003C02400038024044
:102E5000E85100080C000020100000202DE9B04FC0
:102E600090B000AF00237B630023FB6300233B6330
:102E70000023BB63594B9B6803F00C03082B0DD058
:102E8000082B00F2A180002B02D0042B03D09BE082
:102E9000534BBB639BE0534BBB6398E04F4B5B686A
:102EA00003F03F037B634D4B5B6803F48003002B0F
:102EB00028D04A4B5B689B0900223B627A623B6ADE
:102EC000C3F308000021474B03FB01F2002300FB82
:102ED00003F31344434AA0FB0212FA620A46BA62A1
:102EE000FA6A1344FB627B6B0022BB61FA61D7E98B
:102EF0000623D7E90A01FDF7C3F902460B4613463C
:102F0000FB6353E0354B5B689B0900223B617A61B0
:102F10003B69C3F3080A4FF0000B52465B464FF083
:102F200000004FF00001590141EAD2615001024610
:102F30000B46B2EB0A0863EB0B094FF000024FF0AF
:102F400000034FEA891343EA98634FEA8812B2EB11
:102F5000080463EB09054FF000024FF00003EB009B
:102F600043EA5473E20014461D4614EB0A033B6027
:102F700045EB0B037B604FF000024FF00003D7E9F5
:102F8000004529468B02214643EA915321468A0295
:102F9000104619467B6B0022BB60FA60D7E902231A
:102FA000FDF76EF902460B461346FB630B4B5B685D
:102FB0001B0C03F0030301335B003B63FA6B3B6BB9
:102FC000B2FBF3F3BB6302E0054BBB6300BFBB6B1B
:102FD00018464037BD46BDE8B08F00BF00380240FC
:102FE0000024F40040787D0180B400AF034B1B68DF
:102FF0001846BD465DF8047B704700BF0C000020FA
:1030000080B500AFFFF7F0FF0246054B9B689B0AB7
:1030100003F007030349CB5C22FA03F3184680BD93
:1030200000380240F851000880B500AFFFF7DCFF20
:103030000246054B9B685B0B03F007030349CB5C1F
:1030400022FA03F3184680BD00380240F851000808
:1030500080B582B000AFFEF7F1FB78605D4B1B6876
:103060005C4A43F00103136008E0FEF7E7FB024609
:103070007B68D31A022B01D90323A7E0554B1B68A9
:1030800003F00203002BF0D0524B1B68514A43F06F
:1030900080031360FEF7D2FB78604E4B00229A60EB
:1030A0000AE0FEF7CBFB02467B68D31A41F2883276
:1030B000934201D9032389E0464B9B6803F00C033C
:1030C000002BEED1FEF7BAFB7860424B1B68414AF9
:1030D00023F45023136008E0FEF7B0FB02467B6840
:1030E000D31A642B01D9032370E03A4B1B6803F415
:1030F0000033002BF0D1FEF7A1FB7860354B1B6845
:10310000344A23F08073136008E0FEF797FB024611
:103110007B68D31A022B01D9032357E02D4B1B6880
:1031200003F00073002BF0D1FEF788FB7860294B89
:103130001B68284A23F08063136008E0FEF77EFBDB
:1031400002467B68D31A022B01D903233EE0214BB0
:103150001B6803F00063002BF0D11E4B1E4A5A601F
:103160001C4B1E4AC3F884201A4BDB68194A23F40F
:10317000F853D360174BDB68164A23F40053D3602F
:10318000144BDB68134A43F41F03D360114BDB6815
:10319000104A43F40013D3600E4B5B6F0D4A23F0CB
:1031A000010353670B4B5B6F0A4A43F0807353670D
:1031B0000B4B0C4A1A600C4B1B681846FEF7FAFAC8
:1031C0000346002B01D0012300E0002318460837F6
:1031D000BD4680BD003802401030000400300020A1
:1031E0000C0000200024F4001000002080B582B004
:1031F00000AF78607B68002B01D1012341E07B6840
:1032000093F83D30DBB2002B06D17B68002283F8B7
:103210003C207868FEF78AF97B68022283F83D201B
:103220007B681A687B6804331946104600F0B6FACA
:103230007B68012283F846207B68012283F83E20C8
:103240007B68012283F83F207B68012283F84020BD
:103250007B68012283F841207B68012283F84220A9
:103260007B68012283F843207B68012283F8442095
:103270007B68012283F845207B68012283F83D208A
:10328000002318460837BD4680BD000080B485B0D5
:1032900000AF78607B6893F83D30DBB2012B01D042
:1032A000012344E07B68022283F83D207B681B6891
:1032B000DA687B681B6842F00102DA607B681B6891
:1032C0001E4A934218D07B681B68B3F1804F13D01D
:1032D0007B681B681A4A93420ED07B681B68194AA8
:1032E000934209D07B681B68174A934204D07B68DD
:1032F0001B68164A934211D17B681B689B6803F0D8
:103300000703FB60FB68062B10D07B681B681A68FC
:103310007B681B6842F001021A6007E07B681B684B
:103320001A687B681B6842F001021A600023184685
:103330001437BD465DF8047B704700BF00000140B4
:103340000004004000080040000C00400040014024
:1033500080B483B000AF78607B681B68DA687B68F4
:103360001B6822F00102DA607B681B681A6A41F26E
:1033700011131340002B0FD17B681B681A6A40F2AF
:1033800044431340002B07D17B681B681A687B6895
:103390001B6822F001021A607B68012283F83D203D
:1033A000002318460C37BD465DF8047B704780B596
:1033B00082B000AF78607B681B681B6903F0020372
:1033C000022B22D17B681B68DB6803F00203022B0F
:1033D0001BD17B681B686FF002021A617B680122B7
:1033E0001A777B681B689B6903F00303002B03D0EB
:1033F000786800F0B5F905E0786800F0A7F978681A
:1034000000F0B8F97B6800221A777B681B681B699B
:1034100003F00403042B22D17B681B68DB6803F0F4
:103420000403042B1BD17B681B686FF004021A6134
:103430007B6802221A777B681B689B6903F44073E0
:10344000002B03D0786800F08BF905E0786800F075
:103450007DF9786800F08EF97B6800221A777B6826
:103460001B681B6903F00803082B22D17B681B68CB
:10347000DB6803F00803082B1BD17B681B686FF027
:1034800008021A617B6804221A777B681B68DB6973
:1034900003F00303002B03D0786800F061F905E026
:1034A000786800F053F9786800F064F97B680022CE
:1034B0001A777B681B681B6903F01003102B22D15D
:1034C0007B681B68DB6803F01003102B1BD17B6843
:1034D0001B686FF010021A617B6808221A777B68FC
:1034E0001B68DB6903F44073002B03D0786800F09D
:1034F00037F905E0786800F029F9786800F03AF9C2
:103500007B6800221A777B681B681B6903F0010344
:10351000012B0ED17B681B68DB6803F00103012BD4
:1035200007D17B681B686FF001021A617868FDF7AC
:10353000DFFE7B681B681B6903F08003802B0ED1C4
:103540007B681B68DB6803F08003802B07D17B68F6
:103550001B686FF080021A61786800F0B1FA7B682E
:103560001B681B6903F04003402B0ED17B681B686E
:10357000DB6803F04003402B07D17B681B686FF0CA
:1035800040021A61786800F0FFF87B681B681B69CD
:1035900003F02003202B0ED17B681B68DB6803F04F
:1035A0002003202B07D17B681B686FF020021A6173
:1035B000786800F07BFA00BF0837BD4680BD80B553
:1035C00084B000AF786039600023FB737B6893F8A8
:1035D0003C30012B01D10223B4E07B68012283F847
:1035E0003C207B68022283F83D207B681B689B6837
:1035F000BB60BB6823F07703BB60BB6823F47F43E9
:10360000BB607B681B68BA689A603B681B68B3F54F
:10361000005F3ED0B3F5005F00F28780B3F5805FB6
:1036200000F08680B3F5805F7FD8702B1AD0702BA6
:103630007BD8602B50D0602B77D8502B3CD0502BB0
:1036400073D8402B58D0402B6FD8302B64D0302B00
:103650006BD8202B60D0202B67D8002B5CD0102B90
:103660005AD062E07B6818683B6899683B685A6882
:103670003B68DB6800F08CF97B681B689B68BB606B
:10368000BB6843F07703BB607B681B68BA689A60CD
:103690004FE07B6818683B6899683B685A683B68EC
:1036A000DB6800F075F97B681B689A687B681B68AB
:1036B00042F480429A603CE07B6818683B68596835
:1036C0003B68DB681A4600F0E9F87B681B6850210C
:1036D000184600F042F92CE07B6818683B6859688E
:1036E0003B68DB681A4600F008F97B681B686021BC
:1036F000184600F032F91CE07B6818683B6859688E
:103700003B68DB681A4600F0C9F87B681B684021FB
:10371000184600F022F90CE07B681A683B681B68C9
:103720001946104600F019F903E00123FB7300E08D
:1037300000BF7B68012283F83D207B68002283F86C
:103740003C20FB7B18461037BD4680BD80B483B05B
:1037500000AF786000BF0C37BD465DF8047B704752
:1037600080B483B000AF786000BF0C37BD465DF811
:10377000047B704780B483B000AF786000BF0C3723
:10378000BD465DF8047B704780B483B000AF7860BD
:1037900000BF0C37BD465DF8047B704780B485B030
:1037A00000AF786039607B681B68FB607B68344AD7
:1037B00093420FD07B68B3F1804F0BD07B68314AC6
:1037C000934207D07B68304A934203D07B682F4AEC
:1037D000934208D1FB6823F07003FB603B685B6891
:1037E000FA681343FB607B68254A93421BD07B68D1
:1037F000B3F1804F17D07B68224A934213D07B6885
:10380000214A93420FD07B68204A93420BD07B68B9
:103810001F4A934207D07B681E4A934203D07B68BD
:103820001D4A934208D1FB6823F44073FB603B6858
:10383000DB68FA681343FB60FB6823F080023B6897
:103840005B691343FB607B68FA681A603B689A689F
:103850007B68DA623B681A687B689A627B68084A10
:10386000934203D13B681A697B681A637B68012223
:103870005A6100BF1437BD465DF8047B704700BF36
:10388000000001400004004000080040000C00401F
:1038900000400140004401400048014080B487B02E
:1038A00000AFF860B9607A60FB681B6A7B61FB68F7
:1038B0001B6A23F00102FB681A62FB689B693B618B
:1038C0003B6923F0F0033B617B681B013A691343BA
:1038D0003B617B6923F00A037B617A69BB68134310
:1038E0007B61FB683A699A61FB687A691A6200BF7A
:1038F0001C37BD465DF8047B704780B487B000AFCD
:10390000F860B9607A60FB681B6A23F01002FB68FC
:103910001A62FB689B697B61FB681B6A3B617B6980
:1039200023F470437B617B681B037A6913437B61DB
:103930003B6923F0A0033B61BB681B013A69134359
:103940003B61FB687A699A61FB683A691A6200BF59
:103950001C37BD465DF8047B704780B485B000AF6E
:10396000786039607B689B68FB60FB6823F07003BC
:10397000FB603A68FB68134343F00703FB607B6816
:10398000FA689A6000BF1437BD465DF8047B704743
:1039900080B487B000AFF860B9607A603B60FB68C4
:1039A0009B687B617B6923F47F437B613B681A02E0
:1039B0007B681A43BB6813437A6913437B61FB68D6
:1039C0007A699A6000BF1C37BD465DF8047B70477A
:1039D00080B485B000AF786039607B6893F83C3084
:1039E000012B01D1022350E07B68012283F83C20A7
:1039F0007B68022283F83D207B681B685B68FB6064
:103A00007B681B689B68BB60FB6823F07003FB60EE
:103A10003B681B68FA681343FB607B681B68FA68A5
:103A20005A607B681B681C4A934218D07B681B68ED
:103A3000B3F1804F13D07B681B68184A93420ED0B5
:103A40007B681B68164A934209D07B681B68154A3D
:103A5000934204D07B681B68134A93420CD1BB6825
:103A600023F08003BB603B685B68BA681343BB60AC
:103A70007B681B68BA689A607B68012283F83D20E6
:103A80007B68002283F83C20002318461437BD468B
:103A90005DF8047B704700BF000001400004004057
:103AA00000080040000C00400040014080B483B09A
:103AB00000AF786000BF0C37BD465DF8047B7047EF
:103AC00080B483B000AF786000BF0C37BD465DF8AE
:103AD000047B704780B582B000AF78607B68002BB4
:103AE00001D101233FE07B6893F83D30DBB2002B2E
:103AF00006D17B68002283F83C207868FDF792FDB0
:103B00007B68242283F83D207B681B68DA687B6829
:103B10001B6822F40052DA60786800F0CBF97B6809
:103B20001B681A697B681B6822F490421A617B68E3
:103B30001B685A697B681B6822F02A025A617B68FD
:103B40001B68DA687B681B6842F40052DA607B68A5
:103B500000221A647B68202283F83D207B682022A3
:103B600083F83E20002318460837BD4680BD80B547
:103B70008AB002AFF860B9603B601346FB80002357
:103B80007B61FB6893F83D30DBB2202B7CD1BB68B6
:103B9000002B02D0FB88002B01D1012375E0FB68CC
:103BA00093F83C30012B01D102236EE0FB68012227
:103BB00083F83C20FB6800221A64FB68212283F80A
:103BC0003D20FDF73BFE7861FB68FA889A84FB682C
:103BD000FA88DA84FB689B68B3F5805F08D1FB68DC
:103BE0001B69002B04D10023FB61BB68BB6103E0B0
:103BF000BB68FB610023BB61FB68002283F83C20AB
:103C00002AE03B6800937B6900228021F86800F07D
:103C1000E2F80346002B01D0032336E0FB69002BBA
:103C20000BD1BB691B881A46FB681B68C2F30802EC
:103C30005A60BB690233BB6107E0FB691A78FB6815
:103C40001B685A60FB690133FB61FB68DB8C9BB22C
:103C5000013B9AB2FB68DA84FB68DB8C9BB2002BD9
:103C6000CFD13B6800937B6900224021F86800F0C7
:103C7000B2F80346002B01D0032306E0FB682022A4
:103C800083F83D20002300E0022318462037BD467C
:103C900080BD80B58AB002AFF860B9603B60134662
:103CA000FB8000237B61FB6893F83E30DBB2202B66
:103CB00040F08C80BB68002B02D0FB88002B01D128
:103CC000012384E0FB6893F83C30012B01D10223EF
:103CD0007DE0FB68012283F83C20FB6800221A6427
:103CE000FB68222283F83E20FB6800221A63FDF75E
:103CF000A5FD7861FB68FA889A85FB68FA88DA8501
:103D0000FB689B68B3F5805F08D1FB681B69002BDB
:103D100004D10023FB61BB68BB6103E0BB68FB61AE
:103D20000023BB61FB68002283F83C2043E03B6832
:103D300000937B6900222021F86800F04CF80346CC
:103D4000002B01D0032342E0FB69002B0CD1FB6860
:103D50001B685B689BB2C3F308039AB2BB691A8005
:103D6000BB690233BB611FE0FB689B68B3F5805FF2
:103D700007D0FB689B68002B0AD1FB681B69002BEE
:103D800006D1FB681B685B68DAB2FB691A7008E051
:103D9000FB681B685B68DBB203F07F03DAB2FB6988
:103DA0001A70FB690133FB61FB68DB8D9BB2013B41
:103DB0009AB2FB68DA85FB68DB8D9BB2002BB6D12B
:103DC000FB68202283F83E20002300E002231846EF
:103DD0002037BD4680BD80B590B000AFF860B960B7
:103DE0003B601346FB7150E0BB6CB3F1FF3F4CD01E
:103DF000BB6C002B07D0FDF721FD02463B68D31AB0
:103E0000BA6C9A4241D2FB681B680C33BB62BB6A36
:103E100053E8003F7B627B6A23F4D073FB63FB684B
:103E20001B680C33FA6B7A633B63396B7A6B41E83E
:103E30000023FB62FB6A002BE5D1FB681B6814338F
:103E40007B617B6953E8003F3B613B6923F00103E1
:103E5000BB63FB681B681433BA6B3A62FB61F96998
:103E60003A6A41E80023BB61BB69002BE5D1FB68DE
:103E7000202283F83D20FB68202283F83E20FB6847
:103E8000002283F83C2003230FE0FB681B681A68BC
:103E9000BB681340BA689A420CBF01230023DBB20F
:103EA0001A46FB799A429FD0002318464037BD46F8
:103EB00080BD00002DE9B04FC0B000AFC7F8F400DE
:103EC000D7F8F4301B681B6923F44050D7F8F4305E
:103ED000D968D7F8F4301A6840EA01031361D7F8BB
:103EE000F4309A68D7F8F4301B691A43D7F8F430E5
:103EF0005B691A43D7F8F430DB691343C7F8F8302D
:103F0000D7F8F4301B68DB6823F4164121F00C016C
:103F1000D7F8F4301A68D7F8F8300B43D360D7F8E5
:103F2000F4301B685B6923F44070D7F8F43099696A
:103F3000D7F8F4301A6840EA01035361D7F8F43037
:103F40001A688F4B9A4205D0D7F8F4301A688D4B17
:103F50009A4204D1FFF768F8C7F8FC0003E0FFF7C6
:103F60004FF8C7F8FC00D7F8F430DB69B3F5004F21
:103F700040F00C81D7F8FC300022C7F8E830C7F8D1
:103F8000EC20D7E93A4522462B469118B9655B41AA
:103F9000FB65D7E91623214612EB0108294643EBBE
:103FA00001094FF000024FF000034FEAC90343EA52
:103FB00058734FEAC80290469946234618EB03030C
:103FC000C7F8E0302B4649EB0303C7F8E430D7F8D5
:103FD000F4305B680022C7F8D830C7F8DC20D7E996
:103FE00036120B46DB183B65134642EB03037B6539
:103FF000D7E91423D7E93801FCF742F902460B460A
:10400000614BA3FB02235B091C01D7F8FC300022A3
:10401000C7F8D030C7F8D420D7E9348942464B4698
:104020009118B9645B41FB64D7E91223414612EB56
:10403000010A494643EB010B4FF000024FF0000329
:104040004FEACB0343EA5A734FEACA0292469B46B1
:1040500043461AEB0303C7F8C8304B464BEB030348
:10406000C7F8CC30D7F8F4305B680022C7F8C0300E
:10407000C7F8C420D7E930120B46DB183B6413465F
:1040800042EB03037B64D7E91023D7E93201FCF745
:10409000F7F802460B4611463B4BA3FB01235B0995
:1040A000642202FB03F3CB1ADB0003F13202364B2E
:1040B000A3FB02235B095B0003F4F8731C44D7F8ED
:1040C000FC300022C7F8B830C7F8BC20D7E92E89E9
:1040D00042464B469118B9635B41FB63D7E90E2317
:1040E00041465118396349464B417B634FF000020A
:1040F0004FF00003D7E90CAB5946CB00514643EAD9
:1041000051735146CA0010461946034642469B1851
:10411000C7F8B0304B460A4642EB0303C7F8B43049
:10412000D7F8F4305B680022C7F8A830C7F8AC2095
:10413000D7E92A120B46DB18BB62134642EB030396
:10414000FB62D7E90A23D7E92C01FCF799F802466C
:104150000B460D4BA3FB02135B09642101FB03F328
:10416000D31ADB003233084AA2FB03235B0903F0B6
:104170000702D7F8F4301B6822449A6006E100BFBA
:1041800000100140001401401F85EB51D7F8FC30AE
:104190000022C7F8A030C7F8A420D7E928894246F2
:1041A0004B46911839625B417B62D7E9082341464F
:1041B0005418494643EB01054FF000024FF000034D
:1041C000EB0043EA5473E20014461D464346E318ED
:1041D000C7F898304B4645EB0303C7F89C30D7F837
:1041E000F4305B680022C7F89030C7F894204FF095
:1041F00000024FF00003D7E9244529468B002146F1
:1042000043EA917321468A00D7E92601FCF738F882
:1042100002460B46604BA3FB02235B091C01D7F847
:10422000FC300022C7F88830C7F88C20D7E92289F3
:1042300042464B469118B9615B41FB61D7E90623C1
:1042400041465118396149464B417B614FF00002AC
:104250004FF00003D7E904AB5946CB00514643EA7F
:1042600051735146CA0010461946034642469B18F0
:10427000C7F880304B460A4642EB0303C7F8843048
:10428000D7F8F4305B680022BB67FA674FF0000292
:104290004FF00003D7E91E8949468B00414643EAA7
:1042A000917341468A00D7E92001FBF7E9FF0246F6
:1042B0000B461146384BA3FB01235B09642202FB2A
:1042C00003F3CB1A1B013233334AA2FB03235B09EE
:1042D00003F0F0031C44D7F8FC3000223B677A67F8
:1042E000D7E91C8942464B469118B9605B41FB6097
:1042F000D7E9022341465118396049464B417B605A
:104300004FF000024FF00003D7E900AB5946CB0055
:10431000514643EA51735146CA00104619460346B6
:1043200042469B18BB664B460A4642EB0303FB66BC
:10433000D7F8F4305B6800223B667A664FF00002E3
:104340004FF00003D7E9188949468B00414643EAFC
:10435000917341468A00D7E91A01FBF791FF0246A3
:104360000B460D4BA3FB02135B09642101FB03F316
:10437000D31A1B013233084AA2FB03235B0903F063
:104380000F02D7F8F4301B6822449A6000BF07F58B
:104390008077BD46BDE8B08F1F85EB5100B59BB05F
:1043A000009104916FF0004105910291054903913C
:1043B000694600F099F9009B00221A701BB05DF865
:1043C00004FB00BF0802FFFF13460A4601460248ED
:1043D0000068FFF7E3BF00BF64000020024403460B
:1043E000934200D1704703F8011BF9E7014B1868AD
:1043F000704700BF6400002070B50D4D0D4C641B6C
:10440000A4100026A64209D10B4D0C4C00F06AFC0A
:10441000641BA4100026A64205D170BD55F8043BCC
:1044200098470136EEE755F8043B98470136F2E726
:104430003C5200083C5200083C5200084052000820
:104440007047704737B5002944D051F8043C0190BB
:10445000002BA1F10404B8BFE41800F0DFF81E4AF5
:104460000198136833B96360146003B0BDE830404D
:1044700000F0DAB8A34208D9256861198B4201BF60
:1044800019685B6849192160EDE71A465B680BB152
:10449000A342FAD911685518A5420BD124682144CA
:1044A0005418A3421160E0D11C685B6853600C444F
:1044B0001460DAE702D90C230360D6E72568611996
:1044C0008B4204BF19685B68636004BF49192160AF
:1044D0005460CAE703B030BD9003002070B50E4EA3
:1044E0000C463168054611B900F0A6FB3060214644
:1044F000284600F0A1FB431C0AD0C41C24F003048E
:10450000A04207D0211A284600F096FB013001D1C5
:104510004FF0FF34204670BD940300202DE9F8438E
:10452000CD1C25F0030508350C2D38BF0C25002DBA
:10453000074601DBA94205D90C233B600026304623
:10454000BDE8F883DFF8D08000F068F8D8F80030D4
:104550001C465CBB29463846FFF7C0FF431C044697
:1045600055D1D8F800402646002E45D1002C48D021
:1045700023683146384604EB030900F05DFB8145B2
:104580003FD121686D1A29463846FFF7A7FF013051
:1045900037D023682B442360D8F80030002B38D064
:1045A0005A68A2422BD100225A600FE02268521BA7
:1045B0001FD40B2A17D96119A342256018BF59606F
:1045C000636808BFC8F8001062514B60384604F1B8
:1045D0000B0600F029F826F00706231DF21AAED0CC
:1045E0009B1BA350ABE7A3426268DDD1C8F8002053
:1045F000ECE723466468ACE734467668B4E71346D4
:10460000CCE70C233B60384600F00EF897E72560B6
:10461000DCE75B60FFDE00BF900300200148FFF78E
:104620000FBF00BF8C0300200148FFF70ABF00BF87
:104630008C0300202DE9F0478E681F46BE420B68B0
:1046400082460C4690462CD88A8912F4906F26D068
:104650006569096905EB4505A3EB010905EBD5750E
:104660007B1C4B446D109D4238BF1D46530527D51A
:104670002946FFF753FF064660B321694A4600F01A
:10468000EBFAA38923F4906343F08003A3812661AE
:1046900065614E44A5EB09052660A5603E46BE4215
:1046A00000D93E4620683246414600F0ABFAA36886
:1046B0009B1BA3602368334423600020BDE8F08780
:1046C0002A4600F0D7FA06460028E0D12169504674
:1046D000FFF7B8FE0C23CAF80030A38943F040036B
:1046E000A3814FF0FF30E9E72DE9F04F98468B8921
:1046F0001B069DB007460D4614460ED50B6963B9DF
:104700004021FFF70BFF2860286120B90C233B6094
:104710004FF0FF30D0E040236B610023099320234A
:104720008DF82930CDF80C803023DFF8A4818DF886
:104730002A304FF0010923469A4613F8012B0AB19B
:10474000252AF9D1BAEB040B0BD05B462246294649
:104750003846FFF76FFF013000F0A980099A5A44EC
:1047600009929AF80030002B00F0A18000234FF04E
:10477000FF32CDE905230AF1010A049307938DF86E
:1047800053301A935446052214F8011B5048FBF786
:1047900027FD049AD8B9D00644BF20238DF85330A2
:1047A000110744BF2B238DF853309AF800302A2B81
:1047B00015D0079A544600204FF00A0C214611F8F4
:1047C000013B303B092B4DD9B0B1079214E0A0EB6F
:1047D000080309FA03F313430493A246D2E7039BA9
:1047E000191D1B680391002BBBBF5B4242F0020204
:1047F00007930793B8BF049223782E2B0CD16378CC
:104800002A2B34D1039B1A1D1B680392002BB8BFBF
:104810004FF0FF3302340593DFF8C4A02178032260
:104820005046FBF7DDFC38B1049BA0EB0A004022A8
:10483000824013430134049314F8011B25488DF87A
:1048400028100622FBF7CCFC002838D0224B1BBBDB
:10485000039B073323F0070308330393099B334477
:10486000099368E70CFB02320C460120A6E70023FF
:104870000134059319464FF00A0C204610F8012B1D
:10488000303A092A03D9002BC6D00591C4E70CFBA6
:10489000012104460123F0E703AB00932A460F4BA6
:1048A00004A93846AFF30080421C0646D6D1AB8936
:1048B0005B063FF52DAF09981DB0BDE8F08F03AB47
:1048C00000932A46054B04A9384600F079F8EBE737
:1048D000005200080A520008000000003546000897
:1048E000065200082DE9F047164699468A680B697A
:1048F000DDF820809342B8BF1346336091F843201F
:1049000007460C460AB1013333602368990642BF5B
:10491000336802333360256815F0060506D104F1CB
:10492000190AE36832689B1AAB4226DC94F84320EC
:10493000131E226818BF012392062BD404F14302F0
:1049400049463846C04701301ED02368226903F02B
:104950000603042B02BFE5683368ED1AA3680CBF99
:1049600025EAE57500259342C4BF9B1AED18002681
:104970001A34B5421AD1002008E0012352464946B4
:104980003846C047013003D14FF0FF30BDE8F08713
:104990000135C6E7E1185A1C302081F84300224453
:1049A00094F8451082F843100233C7E701232246EA
:1049B00049463846C0470130E6D00136D9E7000005
:1049C0002DE9FF470F7E0C9D782F914680460C46BF
:1049D0009A4601F1430207D8622F0AD8002F00F04F
:1049E000D480582F00F0C08004F1420584F8427052
:1049F0003AE0A7F16303152BF6D801A151F823F093
:104A0000594A00086D4A0008E9490008E9490008C8
:104A1000E9490008E94900086D4A0008E949000829
:104A2000E9490008E9490008E9490008714B000814
:104A3000994A00082B4B0008E9490008E949000899
:104A4000934B0008E9490008994A0008E949000821
:104A5000E9490008334B00082B681A1D1B682A60BF
:104A600004F1420584F8423001239FE020682B685E
:104A7000070603F10401296001D51E6803E046061C
:104A8000FBD5B3F90060002E03DA2D23764284F8BB
:104A900043305A480A2312E02B682068191D296008
:104AA000050601D51E6802E04106FBD51E88534865
:104AB0006F2F0CBF08230A23002184F84310656878
:104AC000A560002DA2BF216821F0040121600EB96C
:104AD000002D4BD01546B6FBF3F103FB1167C75D04
:104AE00005F8017D3746BB420E46F4D9082B0BD1A1
:104AF0002368DE0708D5236961689942DEBF302349
:104B000005F8013C05F1FF35521B2261CDF800A0EC
:104B10004B4603AA21464046FFF7E4FE01304AD146
:104B20004FF0FF3004B0BDE8F087236843F0200366
:104B300023603348782784F84570236829681F0666
:104B400051F8046B02D45F0648BFB6B2DF0748BF16
:104B500043F02003296048BF23601EB9236823F077
:104B6000200323601023A7E72448E4E71546BDE7A8
:104B70002B6826686169181D286035061B6801D5F9
:104B8000196002E07006FBD51980002323611546E9
:104B9000BCE72B681A1D2A601D6862680021284640
:104BA000FBF71EFB08B1401B6060636823610023B4
:104BB00084F84330AAE723692A4649464046D0474D
:104BC0000130ADD023689B0713D4E068039B984263
:104BD000B8BF1846A6E70123324649464046D047AB
:104BE00001309DD00135E36803995B1AAB42F2DCDA
:104BF000EBE7002504F11906F5E700BF11520008A4
:104C000022520008884210B501EB020402D9844206
:104C1000234607D8431EA14208D011F8012B03F800
:104C2000012FF8E7024401468A4200D110BD13F873
:104C3000014D02F8014DF7E738B5064D0023044653
:104C400008462B60FCF7DCFB431C02D12B6803B148
:104C5000236038BD880300200A44914200F1FF33ED
:104C600000D1704710B511F8014B03F8014F914284
:104C7000F9D110BD2DE9F041804614460E4621B908
:104C8000BDE8F0411146FFF749BC2AB9FFF7DAFB4E
:104C900025462846BDE8F08100F01BF8844207460F
:104CA00002D8B4EB500F12D821464046FFF736FC2D
:104CB00005460028EDD0BC422246314628BF3A4680
:104CC000FFF7CAFF31464046FFF7BCFBE1E7354638
:104CD000DFE751F8043C181F002BBCBF0B58C0186D
:104CE00070470000F8B500BFF8BC08BC9E4670478E
:0C4CF000F8B500BFF8BC08BC9E46704739
:104CFC00456E61626C65206F722044697361626CF1
:104D0C00652077726974652070726F7465637420A6
:104D1C006F6E20646966666572656E742073656378
:104D2C00746F7273206F662074686520757365727A
:104D3C0020666C617368200D0A0000005265616486
:104D4C0020646174612066726F6D206469666665AB
:104D5C0072656E74206D656D6F72696573206F6618
:104D6C0020746865206D6963726F636F6E74726F07
:104D7C006C6C6572200D0A005265616420616C6C6C
:104D8C002074686520736563746F722070726F7421
:104D9C00656374696F6E20737461747573200D0A8A
:104DAC00000000005265616420746865204F545007
:104DBC0020636F6E74656E7473200D0A0000000022
:104DCC00496E76616C696420636F6D6D616E6420F1
:104DDC00636F6465207265636569766564206672CD
:104DEC006F6D20686F7374202121200D0A00000064
:104DFC00526561642074686520626F6F746C6F61BA
:104E0C006465722076657273696F6E2066726F6D61
:104E1C0020746865204D4355200D0A0043524320F1
:104E2C00566572696669636174696F6E205061734F
:104E3C00736564200D0A0000426F6F746C6F6164BF
:104E4C006572205665722E2025642E25642E2564ED
:104E5C00200D0A00435243205665726966696361EE
:104E6C0074696F6E204661696C6564200D0A0000E0
:104E7C00526561642074686520636F6D6D616E644A
:104E8C007320737570706F7274656420627920740E
:104E9C00686520626F6F746C6F61646572200D0AB7
:104EAC00000000005265616420746865204D435514
:104EBC002063686970206964656E746966696361F2
:104ECC0074696F6E206E756D626572200D0A00003C
:104EDC004A756D7020626F6F746C6F6164657220BF
:104EEC00746F2073706563696669656420616464BE
:104EFC0072657373200D0A004164647265737320CC
:104F0C00766572696669636174696F6E2073756327
:104F1C00636565646564200D0A0000004A756D7058
:104F2C0020746F203A2030782558200D0A0000009C
:104F3C00526561642074686520464C415348205288
:104F4C006561642050726F74656374696F6E204F75
:104F5C007574206C6576656C200D0A00466C617367
:104F6C0068204D6173732065726173652061637491
:104F7C0069766174696F6E200D0A00005573657255
:104F8C00206E6565647320536563746F722065725F
:104F9C00617365200D0A00004D61737320657261A9
:104FAC007365206F7220736563746F722065726114
:104FBC007365206F66207468652075736572206652
:104FCC006C617368200D0A005375636365737366B7
:104FDC00756C204572617365200D0A004572617312
:104FEC00652072657175657374206661696C6564A2
:104FFC002021210D0A00000057726974652064613C
:10500C00746120696E746F20646966666572656E82
:10501C0074206D656D6F72696573206F662074689E
:10502C0065204D4355200D0A00000000484F535495
:10503C005F41646472657373203D2030782558207D
:10504C000D0A00005061796C6F61642056616C69C7
:10505C0064200D0A000000005061796C6F616420BF
:10506C00496E56616C6964200D0A00004661696CDA
:10507C006564202D3E20556E6C6F636B20746865E3
:10508C0020464C415348204F7074696F6E20436F1B
:10509C006E74726F6C2052656769737465727320DD
:1050AC00616363657373200D0A00000050617373B4
:1050BC006564202D3E20556E6C6F636B20746865A3
:1050CC0020464C415348204F7074696F6E20436FDB
:1050DC006E74726F6C20526567697374657273209D
:1050EC00616363657373200D0A0000004661696C8F
:1050FC006564202D3E2050726F6772616D206F7059
:10510C0074696F6E206279746573200D0A0000005B
:10511C00506173736564202D3E2050726F6772610D
:10512C006D206F7074696F6E206279746573200DD9
:10513C000A000000506173736564202D3E2050728C
:10514C006F6772616D20524F5020746F204C6576E2
:10515C00656C203A2030782558200D0A000000009C
:10516C004368616E676520726561642070726F744C
:10517C00656374696F6E206C6576656C206F662054
:10518C00746865207573657220666C617368200D98
:10519C000A000000426F6F746C6F6164657220537B
:1051AC00746172746564200D0A00000020446973F8
:1051BC0061626C652054696D65722033200D0A00A4
:1051CC004A756D70696E6720746F204170706C69E0
:1051DC00636174696F6E200D0A000000000000000E
:1051EC00000000000102030406070809000000008B
:1051FC0001020304232D302B2000686C4C006566E3
:10520C00674546470030313233343536373839410B
:10521C004243444546003031323334353637383921
:08522C00616263646566000025
:085234007CB0FF7F01000000C7
:04523C00C5010008A0
:04524000A1010008C0
:105244001011121314151617181920210024F40034
:1052540010000000010000000000000050020020C7
:10526400B80200202003002000000000000000001D
:10527400000000000000000000000000000000002A
:10528400000000000000000000000000000000001A
:10529400000000000000000000000000000000000A
:0852A4000000000018000020CA
:040000050800171DBB
:00000001FF
